:020000040800F2
:1000000068080020E12B0008C12A0008C32A000864
:10001000C52A0008C72A0008C92A000800000000F5
:10002000000000000000000000000000052A000899
:10003000CB2A000800000000AD290008952A00081E
:10004000092C00080D2C0008112C0008152C0008A4
:10005000192C00081D2C0008212C0008252C000854
:10006000292C00082D2C0008312C0008CD2A00086E
:10007000D32A0008352C0008392C00083D2C000834
:10008000412C0008452C0008492C00084D2C000884
:10009000512C0008552C0008592C00085D2C000834
:1000A000612C0008D92A0008652C0008692C00087A
:1000B0006D2C0008712C0008752C0008792C0008A4
:1000C0007D2C0008812C0008852C0008892C000854
:1000D0008D2C0008912C0008952C0008992C000804
:1000E0009D2C0008A12C0008A52C0008A92C0008B4
:1000F000AD2C0008B12C0008B52C0008B92C000864
:10010000BD2C0008C12C0008C52C0008C92C000813
:10011000CD2C0008D12C0008D52C0008D92C0008C3
:10012000DD2C0008E12C0008E52C0008E92C000873
:10013000ED2C0008F12C0008F52C0008F92C000823
:10014000FD2C0008012D0008052D0008092D0008D0
:100150000D2D0008112D0008152D0008192D00087F
:100160001D2D0008212D0008252D0008292D00082F
:100170002D2D0008312D0008352D0008392D0008DF
:100180003D2D0008412D0008452D0008492D00088F
:100190004D2D000800000000512D0008552D0008CD
:1001A000592D00085D2D0008612D0008652D0008FF
:1001B000692D00086D2D0008712D0008752D0008AF
:1001C000792D00087D2D0008812D0008852D00085F
:1001D000892D00088D2D0008603000EB810000683B
:1001E00000F0F8407047603000EB8100016821F0BA
:1001F00000410A4302607047C06800F44060401E3E
:100200008041C00F7047CB0D10B5143003F00403CC
:100210001818090D01F01F01036807248C40A3433F
:1002200002FA01F11943016010BDF8B5044600203F
:10023000002600900CB90120F2BD04F15805686851
:1002400028B9204600F0EAFC0020A8602870216848
:100250008868800004D58A68DFF8E40202408A607A
:1002600021688868C00012D48A68DFF8D80202408A
:1002700042F080528A60DFF8D012DFF8D02208689E
:10028000B0FBF2F2521C5200009200F0B5FB216864
:100290008868C00008D46A6842F010026A600126CB
:1002A000A86840F00100A8608B6868689B08C206D7
:1002B00000D4D80700F1BB806A6822F4807242F053
:1002C00002026A608868C0072CD4DFF88422B1F18A
:1002D000A04F18BF914207D1DFF87802DFF878729B
:1002E00000683F6838430CE0DFF87002DFF8707296
:1002F00000683F68DFF86CC2DCF800C038434CEAA5
:10030000000010F001000DD1B1F1A04F16BF9142D5
:10031000DFF85412DFF854120A68606822F47C1285
:1003200002430A6004F12402607F9769E16892F851
:1003300000C047EA4037A0680F430743BCF1010FF4
:1003400047EA0C4703D15068401E47EA404790688F
:1003500020B100F478700743D06807432168DFF8C4
:100360001002D1F80CC000EA0C000743CF602168EE
:100370000F69106927F0406707430F61DB072168A9
:10038000886840D400073ED4CB68DFF8E801277FB7
:100390000340107D43EA873343EA4003CB60206982
:1003A0000028206801690CD041F480310161216886
:1003B000D1F8C03020699B0B40EA8333C1F8C030CC
:1003C00009E021F4803101612068D0F8C010890B68
:1003D0008903C0F8C010107F01280FD123681F695E
:1003E000106A516A6FF38A070743906A0F43D16A14
:1003F00007430F4347F001071F6104E020680169CC
:10040000490849000161606901282068016B05D134
:10041000226A0909521E42EA011101E00909090193
:1004200001630120696860F30101696004E06868A4
:1004300040F01000686001263046F2BD2DE9F84317
:1004400005460E462868DFF808819146B0F1A04FB6
:1004500016BF4045DFF81011DFF810110C688168F5
:10046000490704F01F045DD405F158073A78012AC2
:1004700058D00121DFF87C253970904218BF002C3C
:1004800003D0052C18BF092C48D1284600F067FA84
:10049000010040D17968DFF85805014041F48071CE
:1004A0007960286840451CBFDFF8CC10884200D135
:1004B0001CB9786820F4801078607868C10446BF61
:1004C000B86820F006000020B8604B46686D0FF257
:1004D0007951C162686DDFF830150163686DDFF82E
:1004E0002C1541631C212A681160002038703246A7
:1004F0002868416841F0100141602868C16841F0F6
:100500000101C160286800F14001686D00F0F8FC4D
:1005100000F00BF807E00021397004E00022012010
:100520003A7000E00220BDE8F2832A68DFF8E014A8
:1005300093680B4043F00403936070470000000091
:10054000C0FFFF5FC0FFFF7F0C000020400D0300D5
:10055000000100500800005008010050080400503D
:100560000805005008060050080300500807005016
:100570000740F0FFFDBFFFFF00050050F8B506463D
:10058000002006F158050F46009000242978012923
:1005900001D10220F2BD012028703068816849072E
:1005A00000F1B2817A6839689309303003F00C03A6
:1005B000181802F01F02D0F800C01F239340C1F3A7
:1005C00084612CEA030301FA02F21A4302603068E4
:1005D0008268816852074DD409074BD4BA68B2F1DA
:1005E000004F08D139680022FFF70DFE30684169DD
:1005F00041F0004106E03968FFF705FE30684169C7
:1006000021F0004141613068C1683A69042A32D062
:1006100060303B6800EB820CDFF8FC03DCF8002064
:10062000024003F0F8431343C9087A69480000F018
:1006300006008240134343F00043CCF80030316899
:100640003A69B869603101EB82010B6823F080736D
:1006500018430860387F01280CBF4FF0007000205D
:1006600031683A69603101EB82010B6823F0007355
:100670001843086078E00021FFF7AEFD40033068C2
:10068000214604D1FFF7A8FDC0F3846003E0FFF723
:10069000A3FD00F049F939684A030EBFC1F3846134
:1006A00091FAA1F1B1FA81F1884204D130680022B7
:1006B0000021FFF798FD00F044F9400304D100F059
:1006C00040F9C0F3846003E000F03BF900F02CF93E
:1006D00039684A030EBFC1F3846191FAA1F1B1FAFE
:1006E00081F1884204D1306800220121FFF77BFDAF
:1006F00000F023F9400304D100F01FF9C0F3846037
:1007000003E000F01AF900F00FF939684A030EBF50
:10071000C1F3846191FAA1F1B1FA81F1884204D167
:10072000306800220221FFF75EFD00F002F940036D
:1007300004D100F0FEF8C0F3846005E000F0F9F8A1
:1007400090FAA0F0B0FA80F039684A030EBFC1F306
:10075000846191FAA1F1B1FA81F1884204D1306843
:1007600000220321FFF73FFD31688868C00763D48A
:10077000FA683B68D1F8B0C0DFF8A0E202F01802D6
:10078000C3F312002EFA02F22CEA000013400343D6
:10079000C1F8B030F868DFF8881288424CD1386868
:1007A00041030EBFC0F3846290FAA0F1B1FA81F266
:1007B000521C012102F01F020A2A1BD2420306D159
:1007C000C0F38462C0F38463C0F3846001E000F08E
:1007D000A4F8521C5B1C920603F01F03401C02F09D
:1007E000F842994000F01F00114300EB400041EA3D
:1007F00000511DE0420306D1C0F38463C0F384625C
:10080000C0F3846001E000F088F85B1C521C401CBF
:100810009B0602F01F0200F01F0003F0F843914016
:100820000A38194300EB400041EA005141F00071E1
:10083000BA683068FFF7E7FC3868DFF8E81108426B
:1008400067D03168DFF8E021DFF8E031DFF8C4710C
:10085000B1F1A04F16BFB94216461E463668DFF802
:10086000D0C106F0E07660451CBFDFF8C8E17045F6
:1008700024D15FEA062C21D4B1F1A04F04D0DFF8D7
:100880007401814245D11A461168DFF8AC0121F0AC
:10089000E0710E4346F4000616600168DFF89C2103
:1008A000B1FBF2F2521C0C20424300920098002847
:1008B0001EBF0098401E0090F8D12AE0DFF880E1CA
:1008C00070450DD1F00124D4B1F1A04F1CBFB94245
:1008D0001A46106820F0E070064346F0807611E07A
:1008E000DFF860C1604514D1700212D4B94210D053
:1008F000B1F1A04F18BF1A46106820F0E07006430F
:1009000046F48006166004E0686840F020006860E5
:100910000124002028702046F2BD90FAA0F0B0FA21
:1009200080F213461046704790FAA0F0B0FA80F0BB
:10093000704730680321FFF74FBC30680221FFF792
:100940004BBC30680121FFF747BCE06D40F0100060
:10095000E065206E40F001002066012070477CB504
:1009600004460020009021688868C2073CD488684B
:100970006FF39E10002834D18868254D284040F040
:10098000010088602068B0F1A04F1BBF2149884258
:1009900025482648006800020AD52749274B0A68DF
:1009A000B2FBF3F35B1C0C204343009300F024F8EC
:1009B00000F0A8FB064620680168CA0714D48068C6
:1009C000C00705D420688168294041F00101816099
:1009D00000F098FB801B0328EDD320680168CA074C
:1009E000E9D4FFF7B2FF76BD002076BD000000001D
:1009F000FEF1FFFF0006005002E00098401E00904C
:100A000000980028F9D17047B50A0008BB0A000811
:100A1000C0FFFF7F0001005000F0FF03FFFF070051
:100A200000007F40000008800803005008070050C5
:100A3000000021C31000C0900C000020400D0300F6
:100A4000000052C7000084CB10B5846AE16D11F03C
:100A5000500F22D1E06D40F40070E0652168086815
:100A60000207084606D5FFF7C7FB88B12068C168B2
:100A7000880401E0C16888070AD4E16D21F480711F
:100A8000E165E06DC10403D4E06D40F00100E06574
:100A90002046BDE8104000F03BBBE16DCA0604D51E
:100AA0002046BDE8104000F034BB616D4A6BBDE8E4
:100AB00010401047806A00F02DBB806AC16D41F084
:100AC0004001C165016E41F00401016600F021BBE7
:100AD00018B58BB000F05DF800F060F8DFF80C435B
:100AE0004FF0A04000F01BF808B100F0BFFB00F091
:100AF0004AF808B100F0BAFBDFF8F4123CE010B598
:100B000088B000F04BF8DFF8EC42DFF8EC0200F0C0
:100B100006F808B100F0AAFBDFF8E0124FE0206011
:100B20004FF440316160012004212062A16104F191
:100B3000240000220121A260E26022616261A2839E
:100B400002708260C2600175826102772046FFF701
:100B50006CBB18B58BB000F01CF800F01FF8A84C67
:100B6000A84800F042F808B100F080FB00F00BF854
:100B700008B100F07BFBA44900F028F808B100F0B0
:100B800075FB0CB010BD0020089008A9204600F0AD
:100B900076BB0C22002108A800F014BC2022002102
:100BA000684600F00FBC10B588B0FFF7F7FF974C10
:100BB000974800F01AF808B100F058FB954900F08A
:100BC00005F808B100F052FB08B010BD00910622F4
:100BD0000192002102917F220392042104910022BC
:100BE000059269462046FFF7C9BC20604FF44031AA
:100BF00001202062616004F1240000220421A2602F
:100C0000E26022616261A161A28302708260C260BF
:100C10000275826102772046FFF707BB2DE9F04F8E
:100C20009BB0044614220021684600F0CBFB5422FE
:100C3000002106A800F0C6FB2068774FDFF8DC81B2
:100C4000774D784EB0F1A04F4FF480694FF4807A21
:100C50004FF000514FF400422DD100F098F808B148
:100C600000F004FB00F0A1F842F001022A60082223
:100C7000286800F0010000F08FF84FF0904000F07D
:100C800083F80021B960F96005207860802139611E
:100C90002020F86100213962C7F80080C7F814A04D
:100CA000C7F81890384600F0C1F808B100F0DEFA35
:100CB0006765BC6264E0504BDFF86CB1984232D19A
:100CC00000F065F808B100F0D1FA00F06EF842F0DB
:100CD00002022A604FF40062286800F0020000F06F
:100CE0005BF800F050F808F1140038662421002069
:100CF000B86679668020386700212020F867F96699
:100D0000C7F88010C7F874A0C7F8789007F16000A2
:100D100000F08CF808B100F0A9FA07F160006065F6
:100D2000C7F888402CE0374B98424FF000414FF411
:100D300080320AD10692189100F02BF808B100F029
:100D400095FA00F041F802220DE0314B984217D19C
:100D50000692189100F01DF808B100F087FA00F033
:100D600033F84FF48052286800F00200059005988F
:100D700000920323002201930292716000F003F8B5
:100D80001BB0BDE8F08F5846694600F025BB0692BF
:100D9000179106A800F014BC059003230598009253
:100DA000019300220292316070473168491C012989
:100DB00008D1286840F4005028602A6802F40052E4
:100DC000059205982A6870477168491C012908D165
:100DD000286840F4804028602A6802F48042059226
:100DE00005982A6842F002022A607047FC01002040
:100DF0001000C01068020020000100500040C03AFE
:100E0000D4020020000400500200300440030020FF
:100E1000000500500800900C10000020080002405F
:100E20004C1002405C0400200004004838B5040067
:100E300001D1012032BD2168DFF8A422914204F1E2
:100E4000240500F044F80221697020680268A06857
:100E5000E16823686FF30E12024320690A43616957
:100E60000243A0690A43E1690243206A0A4302433C
:100E70001A60204600F00BF9A068B0F5804F04BF5F
:100E800000216160696A207900F014F838B1052802
:100E900005D2204600F016F900F012F803E0002019
:100EA00028636863A8630021A96101206870297024
:100EB000002032BD0860A96AE86A4860606870472F
:100EC000296B00200860696BA86B486070470BD2E3
:100ED000DFF8100241181423B1FBF3F18900DFF8A9
:100EE00008222962EA617047DFF8000241181422E3
:100EF000B1FBF2F18900DFF8F8012962E86170477F
:100F0000F8B5044604F1240600253078012801D103
:100F10000220F2BD012030707778012F30D10220FD
:100F200070700027B7612068D0F800C04FEA5C07F6
:100F30004FEA470CC0F800C0204600F08CF821684A
:100F4000F06820B10A6842F00E020A6008E0086802
:100F500020F0040008602068016841F00A01016087
:100F6000706A0168CA0301D500F00EF8306B08B151
:100F700000F00AF82068016841F00101016001E019
:100F8000357002252846F2BD016841F48071016088
:100F90007047F8B500F124010423CA691468026897
:100FA000156891F8206006F01F0603FA06F73C4228
:100FB00010D06F070ED51468A50603D4146824F06A
:100FC0000404146000F03EF8C968002939D0BDE877
:100FD000F4400847022303FA06F73C4213D0AF0758
:100FE00011D51468A50605D4146824F00A04146009
:100FF00001224A7000F026F800220A70896801B3C5
:10100000BDE8F4400847082303FA06F6344218D036
:101010002B0716D5146824F00E041460012291F8F1
:101020002030CC6903F01F039A4062600123012243
:101030008A614B7000220A70096911B1BDE8F44061
:101040000847F1BD91F82020CC6902F01F029340BF
:1010500063607047000070B5C56C046D6C60446DD2
:1010600014B1856DC46D6C60012490F84450066C19
:1010700005F01F05AC407460046863608068102848
:1010800002D1A260E16070BDA160E26070BD10B5E8
:101090000168134B174A994228BF2032446C01F073
:1010A000FF01A4080839142302EB8402B1FBF3F119
:1010B0008264012301F01F010F4AC26403FA01F1A7
:1010C000016510BD01790D4A0D4B836502EB81026C
:1010D0004265491E012201F01F018A40C265704726
:1010E00008040240F8FFFDBF00000240F8FBFDBF0E
:1010F000000402400008024080080240FC08024050
:101100004009024001480068704700BF000000200D
:101110007047704770470EE0026843680244083029
:101120005FEAC37C44BF4B445B1E52F804CB43F8D8
:1011300004CB091FF9D150F8041B0029ECD17047EA
:1011400070B52DED028B00F081FB00F041F800F04E
:101150008DFB00F00DFCFFF7BBFCFFF7D0FCFFF7A9
:10116000F8FCFFF720FD00F02BFC01224FF40051AA
:1011700039483A4C3A4D3B4E00F00CFA9FED348A18
:10118000012231462846FFF759F996ED000AB8EEDC
:10119000400ADFED300A60EE200ABBEE041A00EED2
:1011A000881A86ED021A012206F10C012046FFF78B
:1011B00045F996ED030AB8EE400AF1EE000A60EE3A
:1011C000200AB8EE001A00EE881A86ED011AD7E759
:1011D00000B593B03822002105A800F0F3F81422DE
:1011E0000021684600F0EEF8002000F06FFC4FF49C
:1011F000807208920221022205910C920D924021E8
:10120000042209910E92552102220F9110921192FF
:10121000129205A800F0B0FC08B100F027F80F20EA
:101220000321009001910022029203920492042172
:10123000684600F07FFE08B100F018F813B000BD5A
:1012400000680949884208BF00F0BCBF7047000031
:101250000000803900002042000800486802002099
:10126000FC0100204C040020002C014072B6FEE777
:101270000092606840F020006060227070472DE9A5
:10128000F04F00F158049BB023780022012B08BFD7
:10129000022024D0012525700026179600251895D8
:1012A0000368414D3E4EB3F1A04F10D10096009F10
:1012B000BF68D3F808C05FEA4C7C65D47F0763D46D
:1012C000B3F1A04F16BFB342384F394F08E0354F46
:1012D000BB4208BF0095EAD0FFF7CBFF01205BE0DF
:1012E0000B68DFF8D0C0DFF8D080DFF8D0E0DFF89F
:1012F000D09053B3D7F800A04B6890F838B02AF4D8
:10130000604A43EA0A0343EA4B3AC7F800A0006880
:10131000B0F1A04F18BFB04204D1D8F80000B368B4
:10132000184306E0D9F80000AB68DEF80050184317
:10133000284310F001002CD13B68086889680CEA4A
:101340000303184341EA000C1BE03B6823F46043AD
:101350003B600068B0F1A04F18BFB04204D1D8F88C
:101360000000B168084306E0D9F80000A968DEF87B
:1013700000300843184310F001000AD138680CEA25
:10138000000CC7F800C004E0616841F02001616012
:1013900001220020207010461BB0BDE8F08F000035
:1013A00000010050000400500005005008030050E8
:1013B00008070050E0F0FFFF08000050080600504A
:1013C0000804005010B5044610460A46014620465F
:1013D00000F000FF204610BD2DE9F84F0027704AAD
:1013E000704B4FF00F0805460E4638E06E4CA54294
:1013F00014BF062405248C406C4944EA0E0441F8CD
:101400002C40C143D2F808C0746801EA0C0CE40215
:1014100048BF40EA0C0CC2F808C0D2F80CC074688F
:1014200001EA0C0CA40248BF40EA0C0CC2F80CC044
:10143000D2F804C0746801EA0C0CA40348BF40EA67
:101440000C0CC2F804C0D2F800C001EA0C0C7168A0
:10145000C90348BF40EA0C0CC2F800C07F1C3168C9
:1014600031FA07F000F094800124BC4014EA010036
:10147000F4D04FEA470C032101FA0CF16FEA010E98
:10148000716801F00309B9F1010F1CBF01F00301FC
:10149000022912D1A968D6F80C900EEA010109FAC6
:1014A0000CF949EA0101A960696821EA040471683C
:1014B000C1F30011B9400C436C60B900347904F0F9
:1014C0000304032C21D0EC68D6F808900EEA04043B
:1014D00009FA0CF949EA0404EC60347904F00304D5
:1014E000022C12D1FC0805EB840401F01C09D4F88D
:1014F00020A008FA09FB2AEA0B0AD6F810B00BFA6A
:1015000009F949EA0A09C4F820902C680EEA040E89
:10151000347904F0030404FA0CF444EA0E0CC5F820
:1015200000C0746814F4403F98D0D3F800C01F4C3A
:101530004CF0010CC3F800C04FEA970CD3F800E060
:101540000EF0010ECDF800E001F00C01DDF800E036
:1015500054F82C4008FA01FE24EA0E0EB5F1904F23
:1015600008BF002413D0124CA54208BF01240ED09E
:10157000104CA54208BF022409D00F4CA54208BF59
:10158000032404D00D4CA5427FF430AF042432E78D
:10159000BDE8F18F0AB18161704781627047000038
:1015A000000401406010024000140048080001409F
:1015B0000004004800080048000C004800100048E3
:1015C0002DE9FC4705464FF000082868DFF87062F7
:1015D000DFF87072010353D5F06CC100C1460AD424
:1015E000F06C40F08050F0644FF00109F06C00F0B6
:1015F000805000900098DFF85042206840F48070DE
:101600002060FFF77FFD82462068C10506D4FFF702
:1016100079FDA0EB0A000328F6D321E0386810F426
:1016200040701CBF296D88420BD03868396841F47E
:101630008031396020F440703A6822F480323A6098
:101640003860C0070FD5FFF75DFD04463868810795
:1016500009D4FFF757FD001B41F289318842F5D3C9
:101660004FF0030805E03968286D21F4407101430B
:101670003960B9F1000F03D0F06C20F08050F064B5
:101680002878C10705D5F26F6868920840EA82029F
:10169000F2672978880705D5F16FA86821F00C0159
:1016A0000143F1672978480705D5F16FE86821F013
:1016B00030010143F1672978080705D5F16F2869E2
:1016C00021F0C0010143F1672978C80605D5F16F03
:1016D000686921F440710143F1672978880605D5CE
:1016E000F16FA86921F440610143F1672978480648
:1016F00005D5F16FE86921F440510143F16729787C
:10170000080605D5F16F286A21F440410143F167CD
:101710002968C80505D5F16F686A21F44031014395
:10172000F1672968880305D5F968A86A890840EA3D
:101730008101F9602968880505D5F16FE86A21F40F
:1017400040210143F167296848050AD5F16F286BEC
:1017500021F440110143F167296BB1F5801F00F0BE
:1017600069F8296808050AD5F16F686B21F4400112
:101770000143F167696BB1F5800F00F05BF82968F0
:10178000C8040AD5F16FA86B21F040710143F167DD
:10179000A96BB1F1807F00F04DF82968880408D565
:1017A000F16FE86B21F040610143F167E96B00F0F4
:1017B0003FF82968480408D5F16F286C21F0406192
:1017C0000143F167296C00F033F8296808040AD551
:1017D000F16F686C21F040510143F167696CB1F120
:1017E000805F00F01FF82968C8030AD5F16FA86C64
:1017F00021F040410143F167A96CB1F1804F00F045
:1018000011F8296848030AD5F968E86C21F44011F9
:101810000143F960E96CB1F5001F00F00BF8404698
:10182000BDE8F68703D1306840F4803030607047FF
:10183000B1F1006F03D1306840F480103060704720
:101840000C1002409010024000700040032010B5C0
:1018500000F0D7FC0F2000F015FD0024002814BF75
:10186000012400F055FD204610BD000070B586B083
:10187000142200216846FFF7A5FD3348334E016866
:10188000334C344D41F004010160026802F004025F
:1018900005920599026842F020020260036803F095
:1018A000200300F059F842F001020260036803F0DF
:1018B000010300F051F842F002020260036803F0F5
:1018C000020300F049F842F008020260036803F0E6
:1018D000080300F041F842F01002026000220068A4
:1018E00000F0100005904FF4005105983046FFF7C6
:1018F00051FE00224FF428512046FFF74BFE0022F4
:1019000002212846FFF746FE4FF4005100F028F868
:101910003046FFF761FD4FF4285100F021F82046D2
:10192000FFF75AFD0120002100900191029120460D
:101930006946FFF751FD022100F012F82846FFF733
:101940004BFD06B070BD00004C100240000800487E
:10195000000C004800100048059305990268704784
:101960000091012200210291039101926946704782
:1019700080B51248016841F004010160026802F07C
:10198000040200920099026842F001020260002203
:10199000006800F001000090052100980B2000F085
:1019A0003DFC0B2000F058FC002205210C2000F02B
:1019B00035FCBDE802400C2000F04EBC481002404F
:1019C00010B53D4C3D483E49206000220120E060BA
:1019D0006160A26022616261A261E26122622046CE
:1019E00000F0B6FC08B1FFF741FC0021204600F0F2
:1019F0000BFD08B1FFF73AFC0021204600F019FD6D
:101A000018B1BDE81040FFF731BC10BD18B59BB050
:101A10000446142200216846FFF7D4FC542200211A
:101A200006A8FFF7CFFC20682449884241D1402214
:101A3000002106920D9106A8FFF7C2FD08B1FFF73D
:101A400015FC204C206840F001002060216801F066
:101A5000010105910598216841F0020121604FF4D0
:101A60000041226802F002020592122205980091BC
:101A700001920021029103914FF0904004210491C2
:101A80006946FFF7A9FC00220292039280201221EE
:101A9000009001910422049269460B48FFF79CFCD8
:101AA000E06840F40010E060E06800F4001000908E
:101AB00000981CB010BD0000AC0300200054004092
:101AC000C285B2404C1002400004004830B53222BA
:101AD000DFF89830DFF89050DFF88810012448B91B
:101AE00000F01DF820F48070286016D100F01EF878
:101AF0000CD412E0B0F5007F0AD100F010F840F4E9
:101B00008070286009D100F011F806D5032030BD9F
:101B10000A68022060F34A220A60002030BD08688B
:101B200000F4C060B0F5806F28687047086864F3FF
:101B30004A2008601B68DFF838405A43B2FBF4F0D3
:101B4000401C00E0401E4A69530501D50028F9D128
:101B50004869410570470748016841F480410160C8
:101B60007047000000700040807000400C000020B2
:101B700040420F00087000402DE9F84304006DD08A
:101B80002078DFF80866C10717D500F0CDF90CD131
:101B900001F0030103290AD06068B0F5803F2AD123
:101BA000306840F48030306037E00828F4D1306885
:101BB000810302D56068002850D02178880759D564
:101BC00000F0B2F943D101F00301022941D0E068ED
:101BD00000286AD0316841F480713160FFF792FAD1
:101BE0000546306841055DD4FFF78CFA401B032899
:101BF000F7D303205FE1B0F5A02F306806D140F4A1
:101C000080203060316841F4803105E020F480307C
:101C10003060316821F480213160606858B1FFF78D
:101C200071FA054630688103C7D4FFF76BFA401B91
:101C30006528F7D3DDE7FFF765FA054630688103CD
:101C4000BBD5FFF75FFA401B6528F7D3D1E704281F
:101C5000BDD13068410503D5E068002800F05A8105
:101C600000F05AF9DFF83005006800F00BFB00289F
:101C700040F050812078DFF82475010734D5606981
:101C80000028786821D040F001007860FFF73AFA28
:101C900005467868810727D4FFF734FA401B0328EC
:101CA000F7D3A6E700F038F9E4E7306820F4807055
:101CB0003060FFF727FA054630684105DAD5FFF7AF
:101CC00021FA401B0328F7D393E7400840007860CF
:101CD000FFF718FA05467868810705D5FFF712FA6D
:101CE000401B0328F7D384E72078410763D5B06D04
:101CF0000025C10009D4B06D40F08050B0650125C9
:101D0000B06D00F0805000900098DFF89484D8F80F
:101D10000000C10513D4D8F8000040F48070C8F862
:101D20000000FFF7EFF98146D8F80000C10506D49E
:101D3000FFF7E8F9A0EB09000328F5D359E7A068FD
:101D4000012804D1386840F00100386010E005280F
:101D5000386806D140F004003860396841F001016C
:101D600005E0400840003860396821F0040139601E
:101D7000A06841F2893860B1FFF7C4F9814638683C
:101D8000810713D4FFF7BEF9A0EB09004045F6D355
:101D90002FE7FFF7B7F981463868810706D5FFF7C7
:101DA000B1F9A0EB09004045F6D322E71DB1B06DB3
:101DB00020F08050B0652078810621D5A0690028E8
:101DC000B8680ED040F00100B860FFF79BF90546F7
:101DD000B868810714D4FFF795F9401B0328F7D39F
:101DE00007E740084000B860FFF78CF90546B8687F
:101DF000810705D5FFF786F9401B0328F7D3F8E6DE
:101E0000E069002856D0B16801F00C010C2954D0CB
:101E10000228306820F0807030603AD1FFF772F904
:101E200005463068810105D5FFF76CF9401B032892
:101E3000F7D3DEE6F068DFF86C13226A0840616AC7
:101E40001043491E40EA0110226BA16A520840EA81
:101E50000120616B521E490840EA4250491E40EA87
:101E60004160E16A40EAC160F060306840F0807033
:101E70003060F16841F08071F160FFF743F904468A
:101E80003068810116D4FFF73DF9001B0328F7D312
:101E9000AFE6FFF737F904463068810105D5FFF753
:101EA00031F9001B0328F7D3A3E6F068DFF8F81236
:101EB0000840F0600020BDE8F28301282AD0F068D5
:101EC000226A00F00301914201BF00F0F0011031DD
:101ED000626AB1EB021F1DD1A26A00F4FE41B1EBB0
:101EE000022F02BF00F07841E26AB1EBC26F11D15C
:101EF000226B00F4C00101F500115208B1EB425F02
:101F000008D1616B00F0C06000F100704908B0EBCF
:101F1000416FCFD00120CEE77068216920F0FE40EC
:101F200040EA016070607047B068F16800F00C0032
:101F30000C2870472DE9F84F04460026002C6CD081
:101F4000DFF868723868894600F00F00484506D20D
:101F500000F0BFF8386800F00F0048455DD12168F7
:101F6000DFF82852C80741F2893858D56068DFF891
:101F700040B203284FF0080A27D1286882014CD5C7
:101F8000EA68E868C0F30310401C02F00302032A69
:101F90000CBFDFF82022DFF8FC21B2FBF0F2E8688A
:101FA000C0F306204243E868C0F34160401C400093
:101FB000B2FBF0F0584516D3AA6812F0F00F0DD01E
:101FC000890710D5A06870B908E00228286822D1D6
:101FD000810322D500F083F8584504D3A8686AF33A
:101FE0000710A8608026A9686068890840EA810116
:101FF000A960FFF787F88246A868616800F00C00C6
:10200000B0EB810F0BD0FFF77DF8A0EB0A00404545
:10201000F2D303205BE04105DCD4012057E02068C7
:10202000810714D5400703D5A96841F4E061A96090
:102030002078010704D5A968072060F30D21A96065
:10204000A968A06821F0F0010143A96005E0802E95
:1020500003D1A86820F0F000A860386800F00F00F5
:1020600081450FD200F035F8FFF74CF80646386886
:1020700000F00F00484505D0FFF744F8801B4045AD
:10208000F5D3C6E72078410705D5AA68E06822F4B1
:10209000E0620243AA602178080706D5A968206992
:1020A00021F4605141EAC001A96000F018F8AA6863
:1020B0004149C2F30312895C354A01F01F01C8404F
:1020C0001060BDE8F24F3448006800F0DBB8BDE8AE
:1020D000F28F3968090949EA0111396070473749B7
:1020E000086800F00C00042801D12A4870470868ED
:1020F00000F00C00082801D12E487047086800F055
:102100000C000C2818D14A684868C0F30310401C22
:1021100002F00302032A0CBF264A1E4AB2FBF0F269
:102120004868C0F3062042434868C0F34160401C41
:102130004000B2FBF0F070470020704714481F4A7F
:10214000006813681E49C3F3C222895C01F01F01B5
:10215000C840704710B50F220260184A136803F098
:1021600003034360146804F0F0048460136803F40C
:10217000E063C3601268D20802F4E06202610B48B7
:10218000026802F00F020A6010BD00000010024059
:102190000C0000200024F4000400002090100240F5
:1021A000007000400C809F01FCFFEEFE002002400A
:1021B00001B4C40400127A006C2B0008081002401D
:1021C000002C000802490A68886882180A60704773
:1021D000000000204018491C1CBFB1F1010100F8AB
:1021E000012DF9D1704700000901020002D42048F6
:1021F000815470471F4B02F00F021A4402F8041C6E
:1022000070471D4B19684FF6FF020002114000F4A1
:10221000E0600843194908431860704770B5164BD1
:102220001C68C4F302230124C3F10705052D2EBF4A
:102230000F2504FA05F56D1E1E1D072E34BF002361
:10224000DB1E2940994004FA03F3BDE870405B1E91
:102250001A401143C8E70000010007D4012200F032
:102260001F01074B8A40400943F8202070470000B7
:1022700000E400E018ED00E00CED00E00000FA05DD
:1022800000E100E078B504461C481D4D87B00168A8
:1022900041F40061016001A9006800F40060009051
:1022A00002A8009AFFF756FFFFF748FF1549164BA3
:1022B0002960B0FBF3F0401E40F2E7326860002175
:1022C000EA602961A960284600F0DEF8060012D114
:1022D000284600F0E6F806000DD11920FFF7BCFFF4
:1022E000102C07D2002221461920FFF797FF07483C
:1022F000046000E00126304608B070BD6010024066
:1023000000040020002C014040420F000400002087
:1023100080B50E48816841F001018160816801F05B
:10232000010100910099026842F08052026000228F
:10233000006800F0805000900F2100986FF00100BD
:10234000FFF76CFFBDE80140FFF705BC58100240E5
:1023500038B5040001D1012032BD04F14005687890
:1023600020B9002129702046FFF750FB00F044F807
:102370006068216820F0706008612068816821F43D
:1023800000418160E0680128A0680CBF40F4004073
:1023900040F4044021688860E068022820684168B1
:1023A0000CBF41F4006121F4006141602068416884
:1023B00041F0007141F4004141602068C16821F49E
:1023C0000041C16060692169A2690143206841EA56
:1023D0000221C160206AE16922680143116020681E
:1023E000016841F0010101600020686020216970EE
:1023F00020630021A97032BD242068702068016824
:10240000490849000160704730B500F14002537837
:10241000202B0CD11478012C09D000F01DF824F4E5
:1024200080541C6003681D682943196020E0022065
:1024300030BD30B500F140025378202B0AD114781A
:10244000012C07D000F008F824F4706444EA012459
:102450001C600DE0022030BD012313702424547051
:1024600003681D686D086D001D6003681C68704777
:102470000068016841F001010160202050700021D6
:102480001170002030BD000038B5040001D10120DA
:1024900032BD00F06BF818B900F03CF900F0B4F967
:1024A0003EE090F83D10012901D001207047022143
:1024B00080F83D100168CA6842F00102CA600168F4
:1024C000DFF88820914218BFB1F1804F17D0DFF8B4
:1024D000802091421CBFDFF87C3099420FD0DFF89A
:1024E000782091421CBFDFF87430994207D0DFF8A2
:1024F000702091421CBFDFF86C30994209D18A6884
:10250000DFF864100A40062A18BFB2F5803F05D0F4
:1025100001680A68084642F0010202600020704724
:1025200002206870211D206800F0F8F8012028734F
:102530000121A970E87029716871A971E871297287
:102540006872A972E8726970002032BD002C0140E7
:102550000004004000080040000C0040003401402E
:1025600000400140005001400700010004F13C051B
:102570006878704770B504462068C5680669B10779
:1025800014D5AA0712D56FF002010161012222774A
:10259000806910F0030F204602D000F036F903E006
:1025A00000F034F900F0B3F800202077700715D55B
:1025B000690713D520686FF00402026102212177B8
:1025C000806910F4407F204602D000F01EF903E03D
:1025D00000F01CF900F09BF800202077300715D59B
:1025E000290713D520686FF00802026104212177C2
:1025F000C06910F0030F204602D000F006F903E096
:1026000000F004F900F083F800202077F00615D5DB
:10261000E90613D520686FF01002026108212177C6
:10262000C06910F4407F204602D000F0EEF803E0CD
:1026300000F0ECF800F06BF80020207706F00101C4
:1026400005F00100014206D020686FF00101016130
:102650002046FEF7F5FD16F4025F08D0280606D5E1
:1026600022686FF402511161204600F0D0F8F005A5
:1026700008D5290606D522686FF4807010612046BF
:1026800000F0C6F8700608D5690606D522686FF016
:1026900040001061204600F0BCF8B00608D5A9063D
:1026A00006D522686FF020001061204600F0B2F8D5
:1026B000F00208D5E90206D522686FF48010106197
:1026C000204600F0A8F8B00208D5A90206D5226875
:1026D0006FF400101061204600F09EF8700208D5DB
:1026E000690206D522686FF480001061204600F070
:1026F00094F830020AD5290208D522686FF4000048
:1027000010612046BDE8704000F088B870BD2046DA
:1027100000F085B800212970204670472DE9F04768
:102720000368DFF8D0E0DFF8D040DFF8B850DFF81A
:10273000B860DFF8C870DFF8B4C0DFF8C480DFF835
:10274000C490DFF8ACA0704518BFB0F1804F08D03E
:10275000504518BF484504D040451CBF6045B842AD
:1027600010D14A6823F070031343704518BFB0F1CD
:10277000804F0FD0504518BF48450BD0404518BF7B
:10278000604507D0B04218BFA84203D0A04218BF8E
:10279000B84203D1CA6823F4407313434A6923F053
:1027A00080031343036070458B68C3620A688262CA
:1027B00018BF604507D0B04218BFA84203D0A0425E
:1027C00018BFB84201D10969016301224261016960
:1027D000CA0703D50169490849000161BDE8F087CE
:1027E000000000000044014000400140003401406E
:1027F00000040040002C014000480140005001400E
:10280000000C004000080040704770477047704758
:102810007047704770477047704770477047704700
:102820002DE9F843DFF83471386F0026002854D1C1
:102830003C6D641C3C6511D1F86A006828B15021D8
:1028400081F3118800F077F8FEE7F86A396BF962D6
:102850003863786E401C786600F072F8F86EDFF826
:10286000089184424FF0140828D320E0F96AC86820
:10287000C568686884422ED3281D00F084F8A86AD1
:1028800018B105F1180000F07EF8E86A796D0122B0
:1028900082401143796508FB00F0291D484400F08F
:1028A00065F8E86AB96ACA6A904228BF0126F86AE0
:1028B00000680028DAD14FF0FF31F966B86AC06AC3
:1028C00008FB00F859F80810022928BF0126386EC5
:1028D00030B1012604E0F866F0E7F86D401CF865B9
:1028E0003EE0DFF87820106F10B1012111667047CB
:1028F00010661421506DB0FA80F3C3F11F034B43EF
:10290000DFF86410C85838B9502181F31188BFF33B
:102910004F8FBFF36F8FFEE7C81800F108034168BF
:1029200049684160994204BF496841604068C16894
:10293000916270470860BFF34F8FBFF36F8F70478E
:102940000649C86A006810B94FF0FF3203E0C86A50
:10295000C268D0684268CA6670470000D000002094
:102960003046BDE8F28300007001002010B54268D7
:102970004A6093688B609468616091600861016847
:10298000491C016010BD4368016982689A608368D0
:1029900042685A604A68824204BF83684B600022E2
:1029A00002610868401E086008687047EFF30980FC
:1029B000BFF36F8F264B1A681EF0100F08BF20ED73
:1029C000108A20E9F04F106009B44FF0500080F3F6
:1029D0001188BFF34F8FBFF36F8FFFF782FF4FF068
:1029E000000080F3118809BC19680868B0E8F04F4E
:1029F0001EF0100F08BFB0EC108A80F30988BFF3F7
:102A00006F8F7047124B19680868B0E8F04F80F379
:102A10000988BFF36F8F4FF0000080F31188704773
:102A20000C480068006880F308884FF0000080F3CD
:102A3000148862B661B6BFF34F8FBFF36F8F00DFAC
:102A4000DFF81400016841F4700101607047000074
:102A5000F800002008ED00E088ED00E030B400252B
:102A600012E050F8042BD30744BF4A44521E091FFA
:102A7000042942F8045BFAD213468C0744BF158040
:102A80009B1CC90748BF1D7050F8041B0029E8D1E2
:102A900030BC704780B5502080F31188BFF34F8F52
:102AA000BFF36F8FFFF7BCFE18B104494FF08050A1
:102AB0000860002282F3118801BD000004ED00E0EF
:102AC000FEE7FEE7FEE7FEE7FEE770470448FEF795
:102AD00060BA0448FEF75DBA0348FFF74BBD00003B
:102AE00010000020700000200004002010B50749ED
:102AF00079441831064C7C44163404E00A68081DF9
:102B0000114488470146A142F8D110BD2C000000B5
:102B10004C0000004EF68851CEF20001086840F4E7
:102B200070000860BFF34F8FBFF36F8F4FF00170DD
:102B3000E1EE100A7047000025FFFFFF540400007B
:102B40001000002000000000CFE5FFFF1000000093
:102B5000A000000000000020000000000248016802
:102B600041F470010160704788ED00E00000000052
:102B700000000000010203040607080900F00DF838
:102B8000002801D0FFF7B2FFAFF300800020AFF3C1
:102B90000080FEF7D5FA00F002F80120704700F03F
:102BA00001B800000746384600F002F8FBE70000D5
:102BB00080B5AFF30080024A11001820ABBEFBE7DE
:102BC000260002000548014603B4684680F30988E0
:102BD000AFF30080FFF79EFFFFF7D0FFA5EDF5FEF6
:102BE00001488047014800475D2B0008C52B0008BD
:102BF0000000000010000000010000000024F400AC
:102C00000000000001020304FFF7FEBFFFF7FEBF54
:102C1000FFF7FEBFFFF7FEBFFFF7FEBFFFF7FEBFE8
:102C2000FFF7FEBFFFF7FEBFFFF7FEBFFFF7FEBFD8
:102C3000FFF7FEBFFFF7FEBFFFF7FEBFFFF7FEBFC8
:102C4000FFF7FEBFFFF7FEBFFFF7FEBFFFF7FEBFB8
:102C5000FFF7FEBFFFF7FEBFFFF7FEBFFFF7FEBFA8
:102C6000FFF7FEBFFFF7FEBFFFF7FEBFFFF7FEBF98
:102C7000FFF7FEBFFFF7FEBFFFF7FEBFFFF7FEBF88
:102C8000FFF7FEBFFFF7FEBFFFF7FEBFFFF7FEBF78
:102C9000FFF7FEBFFFF7FEBFFFF7FEBFFFF7FEBF68
:102CA000FFF7FEBFFFF7FEBFFFF7FEBFFFF7FEBF58
:102CB000FFF7FEBFFFF7FEBFFFF7FEBFFFF7FEBF48
:102CC000FFF7FEBFFFF7FEBFFFF7FEBFFFF7FEBF38
:102CD000FFF7FEBFFFF7FEBFFFF7FEBFFFF7FEBF28
:102CE000FFF7FEBFFFF7FEBFFFF7FEBFFFF7FEBF18
:102CF000FFF7FEBFFFF7FEBFFFF7FEBFFFF7FEBF08
:102D0000FFF7FEBFFFF7FEBFFFF7FEBFFFF7FEBFF7
:102D1000FFF7FEBFFFF7FEBFFFF7FEBFFFF7FEBFE7
:102D2000FFF7FEBFFFF7FEBFFFF7FEBFFFF7FEBFD7
:102D3000FFF7FEBFFFF7FEBFFFF7FEBFFFF7FEBFC7
:102D4000FFF7FEBFFFF7FEBFFFF7FEBFFFF7FEBFB7
:102D5000FFF7FEBFFFF7FEBFFFF7FEBFFFF7FEBFA7
:102D6000FFF7FEBFFFF7FEBFFFF7FEBFFFF7FEBF97
:102D7000FFF7FEBFFFF7FEBFFFF7FEBFFFF7FEBF87
:102D8000FFF7FEBFFFF7FEBFFFF7FEBFFFF7FEBF77
:0400000508002BC5FF
:00000001FF
