:020000040800F2
:1000000038500020D97D0008757C0008777C0008F6
:10001000797C00087B7C00087D7C000800000000E3
:100020000000000000000000000000001D7C00082F
:100030007F7C000800000000C57B0008317B0008C1
:10004000017E0008057E0008097E00080D7E00087C
:10005000117E0008157E0008197E00081D7E00082C
:10006000217E0008257E0008297E0008817C00088A
:10007000877C00088D7C0008937C00082D7E00089A
:10008000317E0008357E0008397E00083D7E00087C
:10009000417E0008457E0008497E00084D7E00082C
:1000A000517E0008997C0008557E0008597E0008A2
:1000B0005D7E0008617E0008657E0008697E00089C
:1000C0006D7E0008717E0008757E0008797E00084C
:1000D0007D7E0008817E0008857E0008897E0008FC
:1000E0008D7E0008917E0008957E0008997E0008AC
:1000F0009D7E0008A17E0008A57E0008A97E00085C
:10010000AD7E0008B17E0008B57E0008B97E00080B
:10011000BD7E0008C17E0008C57E0008C97E0008BB
:10012000CD7E0008D17E0008D57E0008D97E00086B
:10013000DD7E0008E17E0008E57E0008E97E00081B
:10014000ED7E0008F17E0008F57E0008F97E0008CB
:10015000FD7E0008017F0008057F0008097F000878
:100160000D7F0008117F0008157F0008197F000827
:100170001D7F0008217F0008257F0008297F0008D7
:100180002D7F0008317F0008357F0008397F000887
:100190003D7F000800000000417F0008457F000807
:1001A000497F00084D7F0008517F0008557F0008F7
:1001B000597F00085D7F0008617F0008657F0008A7
:1001C000697F00086D7F0008717F0008757F000857
:1001D000797F00087D7F000800000000000000001B
:1001E00000000000000000003F4000000000000090
:1001F00000003000400030004000000009000BC04B
:100200003D000BC03D00090018C024407FE02240A3
:1002100031800000180024C01B000D803240018096
:1002200003801C4027401C800740004010006000F5
:1002300000000000000000000000000000001F801F
:10024000204040200000402020401F80000000008F
:10025000090006001F8006000900000004000400D9
:100260003F80040004000000001000600000000057
:10027000000000000400040004000400040000006A
:10028000000000400000000000000000002001C04D
:1002900006003800400000001F8020402040204021
:1002A0001F800000000010403FC000400000000020
:1002B00018C02140224024401840000010802040F7
:1002C000244024401B80000002000D0011003FC0AC
:1002D000014000003C802440244024402380000052
:1002E0001F80244024403440038000003000200060
:1002F00027C03800200000001B80244024402440F8
:100300001B8000001C0022C0224022401F800000F1
:100310000000000008400000000000000000000095
:100320000460000000000000000004000A0011004A
:100330002080404009000900090009000900000070
:1003400000004040208011000A0004001800200036
:1003500023402400180000001F802040274029402F
:100360001F400000004007C039000F0001C00040DE
:1003700020403FC0244024401B8000001F802040BC
:10038000204020403080000020403FC020402040DE
:100390001F80000020403FC024402E4030C000009D
:1003A00020403FC024402E00300000000F0010808D
:1003B000204022403380020020403FC0040004005F
:1003C0003FC02040204020403FC02040204000004F
:1003D0000060202020203FC02000200020403FC09F
:1003E00024400B0030C0204020403FC0204000404F
:1003F000004000C03FC03C0003C03C003FC00000C4
:1004000020403FC00C4023003FC020001F80204000
:10041000204020401F80000020403FC02440240096
:10042000180000001F802140214020E01FA0000094
:1004300020403FC02440260019C0004018C024407E
:100440002440224031800000300020403FC0204046
:100450003000000020003F80004000403F8020002E
:1004600020003E0001C0070038002000380007C00F
:100470003C0007C038000000204039C0060039C0E9
:10048000204000002000384007C038402000000015
:10049000304021C02640384020C00000000000004D
:1004A0007FE0402040200000000070000C0003802E
:1004B000004000000000402040207FE000000000DD
:1004C000000020004000200000000000001000108C
:1004D000001000100010001000000000400000009C
:1004E00000000000000002800540054003C00040FD
:1004F00020003FC00440044003800000000003804F
:1005000004400440064000000000038004402440F2
:100510003FC000400000038005400540034000004C
:10052000000004401FC0244024402000000002E0DE
:10053000055005500650042020403FC004400400F0
:1005400003C000400000044027C00040000000003D
:1005500000100010041027E00000000020403FC001
:100560000140070004C00440204020403FC000403C
:100570000040000007C0040007C0040003C00000E2
:10058000044007C00440040003C000400000038092
:100590000440044003800000041007F004500440AD
:1005A00003800000000003800440045007F00010A6
:1005B000044007C0024004000400000000000640A0
:1005C0000540054004C00000000004001F800440F6
:1005D00000400000040007800040044007C00040C5
:1005E0000400070004C0018006000400060001C0EA
:1005F000070001C006000000044006C0010006C05C
:10060000044000000410071004E00180060004000C
:100610000000044005C00640044000000000000047
:1006200004007BE040200000000000000000FFF01C
:1006300000000000000040207BE0040000000000FB
:10064000400080004000200020004000000000002A
:10065000000000000000000000000000000000009A
:1006600000001FCC000C000000000000000008008B
:10067000300060000800300060000000022003FC31
:100680001E20022003FC1E200220000000000E1885
:1006900011043FFF10840C78000000000F0010844C
:1006A0000F3800C0077818840078000000780F84A5
:1006B00010C411240E9800E40084000808006800AB
:1006C00070000000000000000000000000000000BA
:1006D000000007E01818200440020000000040025B
:1006E0002004181807E0000000000000024002404B
:1006F00001800FF001800240024000000080008075
:1007000000800FF800800080008000000001000DD4
:10071000000E00000000000000000000000000804B
:100720000080008000800080008000800000000CBD
:10073000000C0000000000000000000000000006A7
:10074000001800600180060018002000000007F07B
:10075000080810041004080807F00000000008044E
:1007600008041FFC000400040000000000000E0C40
:1007700010141024104411840E0C000000000C18FA
:1007800010041104110412880C700000000000E035
:100790000320042408241FFC0024000000001F98EC
:1007A000108411041104108810700000000007F07C
:1007B00008881104110418880070000000001C0053
:1007C000100010FC13001C001000000000000E3888
:1007D00011441084108411440E38000000000700FA
:1007E000088C10441044088807F000000000000046
:1007F0000000030C030C00000000000000000000DB
:100800000001010600000000000000000000008060
:1008100001400220041008081004000002200220F9
:10082000022002200220022002200000000010040A
:1008300008080410022001400080000000000E00A3
:100840001200100C106C10800F00000003E00C1858
:1008500013E4142417C4082807D000000004003C47
:1008600003C41C40074000E4001C000410041FFCEB
:100870001104110411040E880070000003E00C182C
:1008800010041004100410081C10000010041FFCB9
:10089000100410041004080807F0000010041FFCE6
:1008A0001104110417C410040818000010041FFCE0
:1008B0001104110017C010000800000003E00C181C
:1008C0001004100410441C780040000010041FFCA9
:1008D00010840080008010841FFC100400001004AD
:1008E00010041FFC100410040000000000030001AD
:1008F000100110011FFE10001000000010041FFC6A
:10090000110403801464181C1004000010041FFC60
:100910001004000400040004000C000010041FFC7C
:100920001F0000FC1F001FFC1004000010041FFC2F
:100930000C04030000E010181FFC100007F008086A
:10094000100410041004080807F0000010041FFC35
:1009500010841080108010800F00000007F008182D
:1009600010241024101C080A07F2000010041FFCB9
:100970001104110011C011300E0C000400000E1CF7
:1009800011041084108410441C380000180010005A
:1009900010041FFC100410001800000010001FF8C5
:1009A00010040004000410041FF8100010001E00C2
:1009B00011E0001C007013801C0010001FC0103CD0
:1009C00000E01F0000E0103C1FC000001004180CE5
:1009D000163401C001C01634180C100410001C009D
:1009E000130400FC13041C00100000000804101C79
:1009F0001064108413041C04101800000000000090
:100A000000007FFE40024002400200000000300073
:100A10000C0003800060001C000300000000400286
:100A2000400240027FFE00000000000000000000C5
:100A300020004000400040002000000000010001B4
:100A40000001000100010001000100010000400060
:100A5000400020000000000000000000000000989E
:100A6000012401440144014400FC000410001FFC67
:100A7000008801040104008800700000000000707C
:100A800000880104010401040088000000000070D7
:100A900000880104010411081FFC0004000000F894
:100AA000014401440144014400C800000000010465
:100AB00001040FFC1104110411001800000000D6FD
:100AC00001290129012901C90106000010041FFCA8
:100AD000008401000100010400FC00040000010486
:100AE000190419FC000400040000000000000003C9
:100AF00000010101190119FE0000000010041FFC93
:100B00000024004001B4010C0104000000001004A6
:100B100010041FFC0004000400000000010401FC9C
:100B20000104010001FC0104010000FC010401FCBE
:100B3000008401000100010400FC0004000000F832
:100B4000010401040104010400F80000010101FF97
:100B5000008501040104008800700000000000709E
:100B6000008801040104010501FF000101040104E2
:100B700001FC00840104010001800000000000CCA1
:100B80000124012401240124019800000000010037
:100B9000010007F80104010400000000010001F851
:100BA000000400040004010801FC000401000180AD
:100BB0000170000C001001600180010001F0010CC7
:100BC000003001C00030010C01F001000000010400
:100BD000018C00740170018C01040000010101818D
:100BE0000171000E00180160018001000000018405
:100BF000010C013401440184010C000000000000DC
:100C00000000000001003EFC400240020000000025
:100C100000000000FFFF0000000000000000400294
:100C200040023EFC010000000000000000006000E7
:100C300080008000400040002000200000000000F4
:100C400000000000000000000000000000000000A4
:100C50000000000000000000000000000000000094
:100C60000000000000000000000000000000000F75
:100C700080380FFE380F80380000000000000000B0
:100C8000000000000000000000000100000600005D
:100C90000C00003800003100000600000C00003895
:100CA00000003000000000000000000061800067CC
:100CB000F807F98000618000618000618000618038
:100CC0000067F807F9800061800000000000000064
:100CD000000001C0E003E0F00630080418081FFF20
:100CE000FE040E080787F00381E00000000000000A
:100CF00001F000060C00040408060C7001F9C000A5
:100D00000E00003BE000EC18070808040C18000374
:100D1000E00000000001E00007F003F818041C08E0
:100D200004170807E1D003C0E00023B0003C08002E
:100D30002008000010000000000000010000310049
:100D4000003200001C000000000000000000000055
:100D50000000000000000000000000000000000093
:100D60000000000000000000000000007F0001FF04
:100D7000C00780F00C0018100004200002000000E2
:100D80000000002000021000040C00180780F00191
:100D9000FFC0007F00000000000000000000000015
:100DA0000000000000000000420000660000660035
:100DB000003C0000180003FFC0001800003C0000C9
:100DC0006600006600004200000000000800000805
:100DD0000000080000080000080001FFC000080033
:100DE00000080000080000080000080000000000E3
:100DF000000100003100003200001C000000000073
:100E000000000000000000000000000000000000E2
:100E100000000000080000080000080000080000B2
:100E20000800000800000800000800000800000892
:100E30000000000000000000000000003800003842
:100E4000000038000000000000000000000000006A
:100E5000000000000000000000000000000600008C
:100E60001C000070000180000E0000380000C0006F
:100E70000700001C0000300000000000000000001F
:100E80007F8001FFE0038070060018040008040062
:100E90000806001803807001FFE0007F800000005A
:100EA0000000000000000100080100080100080324
:100EB000FFF807FFF8000008000008000008000025
:100EC0000000000000000001C03802C05804009873
:100ED000040118040218040418061C1803F8180169
:100EE000E0F800000000000000000001C0E003C0C6
:100EF000F004000804080804080806180803F41899
:100F000001E7F00001E00000000000000000000028
:100F10000300000D000011000061000081080301C2
:100F20000807FFF80FFFF8000108000108000000A3
:100F30000000000000E007FCD006080806100806C4
:100F40001008061008061838060FF00607C0000043
:100F500000000000000000003F8001FFE00384303B
:100F600002081804100804100804100807181003D9
:100F70000FF00007C000000000000000000003C0E8
:100F8000000700000600000600F80607F806180033
:100F900006E000070000060000000000000000015D
:100FA000E1E003F7F0063410041808041808040CF4
:100FB00008040C0806161803F3F001C1E000000055
:100FC00000000000F80003FC3003063804020804A7
:100FD00002080402080404100308F001FFC0007FA7
:100FE0000000000000000000000000000000000001
:100FF00000000000703800703800703800000000F9
:1010000000000000000000000000000000000000E0
:101010000000000000000000301A00301C0000003A
:1010200000000000000000000000000000000000C0
:1010300000000008000014000022000041000080B1
:101040008001004002002004001008000800000099
:10105000000000002100002100002100002100000C
:1010600021000021000021000021000021000021BA
:10107000000000000000000000000800080400104C
:10108000020020010040008080004100002200009A
:10109000140000080000000000000003C00004C0AD
:1010A00000040000080038080F380808380810004D
:1010B0000C300007E00003C000000000000000004A
:1010C0003F8000FFE0038070020F1006708804C0AC
:1010D00088048308047F8802C09003012000FE403A
:1010E0000000080000180001F8003E0801C20007D7
:1010F000020007E20000FE00001FC80001F8000027
:101100003800000804000807FFF807FFF804080883
:1011100004080804080804080806180803F418015D
:10112000E7F00001E0000000000000003F8001FF48
:10113000E00380700200180400080400080400089E
:101140000400100600200780C0000000040008070B
:10115000FFF807FFF8040008040008040008040072
:101160001802001003807001FFE0007F8000000083
:1011700004000807FFF807FFF8040808040808043B
:101180000808040808043E080400080600180100C6
:101190006000000004000807FFF807FFF8040808D3
:1011A000040800040800040800043E0006000006CD
:1011B0000000018000000000000000003F8001FFEF
:1011C000E003807006001804000804020804020806
:1011D0000203F00783F00002000002000400080789
:1011E000FFF807FFF80408080008000008000008DE
:1011F0000000080004080807FFF807FFF8040008CB
:1012000000000000000004000804000804000807B3
:10121000FFF807FFF80400080400080400080000B5
:1012200000000000000000000006000007000001B0
:1012300004000104000104000307FFFE07FFFC0493
:10124000000004000004000004000807FFF807FF86
:10125000F8040C08001800003E0004C7800503C80D
:101260000600F8040038040018000008040008070D
:10127000FFF807FFF804000800000800000800005D
:1012800008000008000008000018000060000000CE
:1012900004000807FFF807800807FC00007FC00073
:1012A00003F80007C000780007800807FFF807FF71
:1012B000F804000804000807FFF807000803C0004E
:1012C00000E000003800001E000007000001C0041C
:1012D00000F007FFF8040000000000007F8001FF1D
:1012E000E0038070060018040008040008060018D7
:1012F00003003001FFE0007F8000000004000807C9
:10130000FFF807FFF80404080404000404000404C0
:1013100000040400060C0003F80001F000000000C7
:10132000000000007F8001FFE00380700600880459
:1013300000880400C806003C03003E01FFE6007F71
:101340008400000004000807FFF807FFF8040808FD
:10135000040800040C00040F00040BC00610F00386
:10136000F03801E00800000800000001E0F803F098
:1013700030063010041808041808040C08040C087F
:101380000206180207F00781E00000000180000655
:10139000000004000004000004000807FFF807FF35
:1013A000F8040008040000040000060000018000AA
:1013B00004000007FFE007FFF00400180000080029
:1013C000000800000800000800000804001007FFE3
:1013D000E004000004000006000007E00007FE0033
:1013E000041FE00001F80000380001E0043E00079F
:1013F000C00006000004000004000007E00007FF32
:10140000C0041FF80007C007F80007FF80043FF87A
:101410000007C004F80007000004000000000004FA
:10142000000806001807C07805F1C8003E00001F3C
:10143000800463E80780F806001804000800000034
:1014400004000006000007800007E008047C080094
:101450001FF80007F800180804E00807000006005D
:10146000000400000000000100080600380400F835
:101470000403E8040F08047C0805F00807C0080707
:1014800000180400600000000000000000000000E0
:10149000000000000000003FFFFE200002200002CC
:1014A00020000220000220000200000000000000D6
:1014B000000008000007000000C00000380000061F
:1014C000000001C000003000000E0000010000001C
:1014D0000000000000002000022000022000022086
:1014E00000022000023FFFFE00000000000000009C
:1014F00000000000000000000000000000080000E4
:101500001000003000002000003000001000000833
:1015100000000000000000000000010000010000C9
:1015200001000001000001000001000001000001B5
:1015300000000100000100000100000100000000A7
:10154000000000000020000020000010000010003B
:10155000000000000000000000000000000000008B
:101560000000000000F00019F8001B18002208001D
:101570002608002408002410003FF8001FF800008F
:101580000800001800000004000007FFF80FFFF03B
:10159000001818001008002008002008003018006B
:1015A0001FF0000FC00000000000000007C0001F77
:1015B000F0001830002008002008002008003C0837
:1015C000001C10000060000000000000000000008F
:1015D00007C0001FF0003818002008002008002075
:1015E0000804101007FFF80FFFF0000010000000C3
:1015F0000000000000000007C0001FF000123000D3
:101600002218002208002208003208001E10000ED6
:10161000200000000000000020000020080020083A
:1016200001FFF803FFF8062008042008042008073B
:10163000200003000000000000000000000E000E6B
:101640006E001FF30031B10020B10020B1003191D4
:10165000001F13002E1E00200E00300000000004AA
:10166000000807FFF80FFFF8001008002000002016
:1016700000002008003FF8001FF8000008000000EC
:1016800000000000000000200800200800200806DC
:101690003FF8063FF80000080000080000080000BE
:1016A0000000000000000000000000000300000334
:1016B000002001002001002003063FFE063FFC0041
:1016C000000000000000000000000004000807FF08
:1016D000F80FFFF8000188000300002FC00038F861
:1016E0000020380020080000080000000000000072
:1016F000000004000804000804000807FFF80FFFBA
:10170000F8000008000008000008000000000000C9
:10171000002008003FF8003FF800100800200000FB
:101720003FF8003FF8001008002000003FF8003F9D
:10173000F8000008000000002008003FF8003FF813
:10174000001008001000002000002008003FF800F2
:101750001FF80000080000000000000007C0000F94
:10176000F000183000300800200800200800300881
:10177000001830000FF00007C0000000000000005B
:101780002001003FFF003FFF001011002009002052
:1017900008002008003038001FF0000FC0000000D3
:1017A0000000000007C0001FF000381800200800EB
:1017B0002008002009001011001FFF003FFF00005B
:1017C00001000000002008002008002008003FF869
:1017D000003FF80008080010080020080020000062
:1017E0003000003000000000000000000000000C8D
:1017F00078001E1800330800230800210800218803
:101800000021980030F00038600000000000000067
:10181000200000200000200000FFF003FFF800205F
:101820000800200800200800003000000000000030
:10183000000000002000003FF0007FF800001800CA
:101840000008000008002010003FF8007FF00000B2
:1018500010000000000000002000003000003C00EC
:10186000003F800023F0000078000070002380001B
:101870003C00003000002000002000003C00003F41
:10188000E00023F80000E0002700003E00003FE0F9
:101890000021F80001E0003E0000200000000000F0
:1018A0002008002008003838003E68002780000328
:1018B000C8002CF80038380020180020080000006C
:1018C000000000002000003003003C01003F8300C6
:1018D00023EC000070002380003C0000200000206A
:1018E0000000000000000000000000380800203860
:1018F0000020F80023E8002F88003E080038080088
:10190000201800007000000000000000000000002F
:10191000000000000000000008000014001FF7FC99
:10192000300006200002000000000000000000005F
:101930000000000000000000000000000000FFFFA9
:10194000FF00000000000000000000000000000098
:101950000000000000002000023000061FF7FC001D
:10196000140000080000000000000000000000005B
:1019700000000000000000180000600000400000AF
:1019800040000020000010000008000004000004D7
:1019900000000C000010000040F0200070472DE90E
:1019A000F14FB0B0924604910DF142013A9A2B9159
:1019B00099464A7000200AE01AF8011B0498309AF0
:1019C00090470028049000F042860D98401C0D902E
:1019D0009AF8000050B12528EED10021002207918D
:1019E000089209910A920B910C9204E00D9800F074
:1019F00030BE41F001011AF8010F2028F9D0232848
:101A00000CD02B2804D02D2805D0302809D00BE08D
:101A100041F00201EFE741F00401ECE741F0080179
:101A2000E9E741F01001E6E72A280FD1D9F80020B4
:101A300052F8040BC9F8002000280F9003D540424B
:101A40000F9041F004010AF1010A14E00F92DFF84F
:101A5000083C0AE00F98984205DA00EB800402EB9C
:101A60004402303A0F920AF1010A9AF80020A2F1DA
:101A700030000A28EED39AF800002E2803D04FF049
:101A8000FF320E9229E01AF8010F2A2809D1D9F85D
:101A9000000050F8042BC9F800000E920AF1010A68
:101AA0001BE02D280CBF0AF1010A002000220E9233
:101AB000DFF8A44B0BE040B90E9AA24205DA02EB24
:101AC000820503EB4503303B0E930AF1010A9AF8B5
:101AD0000030A3F130020A2AEDD3ADF840100FF622
:101AE0007C309AF8001000F0FBFE08B11AF8010BE8
:101AF0008DF842009DF84200682805D19AF8000050
:101B000068280CD1622106E06C2804BF9AF8000016
:101B10006C2804D171218DF842100AF1010A12A833
:101B200006901AF801BBBBF125012CD01C3900F03E
:101B30009481091F022940F29081133900F0B98481
:101B4000093900F08A81891E00F04E85491E00F097
:101B5000FB84491E022940F28081091F00F0F484B1
:101B6000491F00F0EF80491E00F0A384491E00F0D9
:101B7000D780C91E0CD0891E00F09B84C91E00F0BE
:101B8000988400F03CBD01230793252100F034BD6B
:101B9000D9F8000050F8044BC9F80000002C059457
:101BA00040F0AB802B994878002800F0A1804FF0DE
:101BB000FF340FF6B02000F0A3FE201A40F0478556
:101BC00000F029BD01236A4602A9304600F00EFE4E
:101BD000002840F03C856D1EF4D13096079D12AF71
:101BE00075B1309E17F8011B0498B0470028049087
:101BF00000F02D850D98401C6D1E0D90F2D1309691
:101C00000A9D3021002D8DF800100CDD309E01233F
:101C10006A4602A9304600F0E9FD002840F0178529
:101C20006D1EF4D13096059F089D75B1309E17F852
:101C3000011B0498B0470028049000F008850D9817
:101C4000401C6D1E0D90F2D130960B9D3021002D61
:101C50008DF800100CDD309E01236A4602A9304643
:101C600000F0C4FD002840F0F2846D1EF4D13096DF
:101C700005980899099D471875B1309E17F8011B02
:101C80000498B0470028049000F0E1840D98401CAF
:101C90006D1E0D90F2D130960C9D3021002D8DF8E7
:101CA00000100CDD309E01236A4602A9304600F088
:101CB0009DFD002840F0CB846D1EF4D130969DF838
:101CC000400041077FF584AE2020002C8DF80000F5
:101CD0007FF77EAE309D01236A4602A9284600F0B8
:101CE00085FD002840F0B384641EF4D130956FE682
:101CF0000FF65830059000F08EBC0E9D002D04D5D7
:101D0000204600F01DFE044607E02A46204600F06B
:101D100033FE002814BF041B2C46089400F07BBC43
:101D2000D9F8001051F8040BC9F8001020F0000495
:101D3000002121F0FF35CDE9024512AB0593782152
:101D400000F04EBC2B99487820B14FF0FF340FF6CD
:101D5000CC2030E79DF84200622860D0682817D078
:101D60006A283FD06C2806D0712847D074282CD020
:101D70007A281DD062E0D9F8001051F8040BC9F898
:101D80000010002866D14FF0FF340FF6A82012E7AC
:101D9000D9F8001051F8040BC9F8001020B94FF021
:101DA000FF340FF6902006E70D99018000F033BC58
:101DB000D9F8001051F8040BC9F80010002849D1D7
:101DC0004FF0FF340FF66C20F5E6D9F8001051F80B
:101DD000040BC9F8001000283CD14FF0FF340FF677
:101DE0005420E8E6D9F8001051F8040BC9F80010A7
:101DF00080B94FF0FF340FF63C20DCE6D9F8001034
:101E000051F8040BC9F8001020B94FF0FF340FF659
:101E10002420D0E60D9AD317C0E90023FBE3D9F8BC
:101E2000001051F8040BC9F8001020B94FF0FF342E
:101E30000FF60020BFE60D990170ECE3D9F8001011
:101E400051F8040BC9F8001020B94FF0FF340FF619
:101E5000E410B0E60D990160DDE39DF842004C28E6
:101E600007BFD9F80010CA1DD9F80000C21D22F022
:101E70000702C9F80020D2E900010832C9F80020A1
:101E8000CDE90201C80F02D007982D210AE0BDF864
:101E90004000810702D507982B2103E0C00705D534
:101EA0000798202112AA1154401C079012A80799E4
:101EB0004BF0200300EB010CDDE90201CDE92C0120
:101EC000612BCDF814C021AC0BD00E98002848BF70
:101ED000062105D404BF4BF02000672801D1012161
:101EE0000E91DDE902014F0047EAD0777E15FF171A
:101EF0004FF0FF32974208BF964210D1090341EAE2
:101F000010510003002908BF002808D0ABF161057B
:101F100003211A2D089118D30FF6381110E0DDE9CE
:101F200002014A00521512F1010F11D108030FD11D
:101F3000ABF1610503211A2D08911FD30FF61C1177
:101F40000322604600F044FD65E30FF60411F7E755
:101F5000DDE902016A4600F047FDCDE902014BF0E0
:101F60002000612811D1059830210170821C059252
:101F7000BBF1610F0CBF7821582102E00FF6D801A8
:101F8000DEE741700798801C0790DDE9020120F030
:101F9000000231F0004308BF002A02D100260025CC
:101FA00042E14BF02008B8F1610F40F092800E98AA
:101FB000002847BF21210191401C0190019FDDE9CC
:101FC0002C017F1C00220023DDE9024500F044FDC6
:101FD00038BF85F0004500998DF88420091F002F37
:101FE00000910DF1850632DD2046294600220023AE
:101FF00000F04CFD2BD21C2200F062FD04460D4681
:1020000000F0FCFDFF1F002F804609DD00F012FEEE
:1020100002460B462046294600F0DCFE04460D46EB
:10202000F01D0721B8F1000F0CDD491E5EBF08F05E
:102030000F0200F8012D4FEA2818F3D502E0002224
:1020400000F8012D491EFAD5C61D002FCCDC0DF17C
:102050008500361A01980DF185048642D8BF3046B6
:1020600000282FD4B04206DA0DF185010A5C082A57
:10207000A8BF0F2100DA0021024621AB134400E083
:10208000401E13F80159521E8D42F9D00F2904D178
:102090000DF185018B5C5B1C8B54002A04D50099E3
:1020A000091D21AC401C0091411E0BD4621813780D
:1020B0003033DDB23A2DA4BF5B443A3B491E02F8EF
:1020C0000139F4D50E99002940F1AC80421E0E92E0
:1020D000A8E00099DFF8042747F29750414391FBAD
:1020E000F2F20092DDE92C45C2F10702002A25F048
:1020F000004504DD2046294600F04CFB0BE052422F
:102100000020DFF8DC1600F045FB02460B462046B7
:10211000294600F0D1FE04460D46B8F1660F06BF11
:10212000009F0A3706270E983F18142FC8BF1427A0
:1021300030208DF884000DF18506002F34DD204617
:10214000294600F0DDFF01460A4606F10803042097
:102150000A26B2FBF6F606EB860EA2EB4E023032F2
:1021600003F8012C0A22B6FBF2F202EB820EA6EB78
:102170004E063036401E03F8026DE9D1083F002FAD
:1021800003F10806D9DD084600F0CCFF02460B46F5
:102190002046294600F01EFE0022DFF8483600F0F7
:1021A000CFFF04460D46CAE70DF18500361A0DF142
:1021B000850404E00098401E761E0090641C207880
:1021C0003028F7D0B8F1660F02D10099491C04E01D
:1021D000B8F1650F0CBF012100210E980818864246
:1021E000B8BF701E00281DD4B04204DA215C342927
:1021F000C8BF392100DC30210246631E9D1800E073
:10220000401E15F80169521E8E42F9D0392902D1BB
:10221000A15C491CA154002A04D50099491C1C4604
:10222000401C00910646009D01F060F8406A077866
:10223000DDF8388030B2002802DC01260FF220647D
:102240004BF02000662808BF6D1C16D0672846D1C9
:1022500028B210F1040F48DB404546DA9DF84000F3
:102260006D1C010703D430B24045D8BF804628B268
:10227000B8EB000848BF4FF000080FFA85FBBBF130
:10228000000F00F3B5800898411C08913022059991
:102290000A54B8F1000F03DC9DF84000010704D593
:1022A0000898411C089105990F5418EB0B0FB8BF03
:1022B000C8F100052DB26842A84432B20B90904597
:1022C000B8BF4646059B089836B209963246214665
:1022D000184400F07DFBA8EB06000C90D2E0BBF1A7
:1022E000610F17D14FF0700B19E030B2404504DA9E
:1022F0009DF840100A0758BF8046B8F1010848BF52
:102300004FF00008BBF1670F14BF4FF0450B4FF0C3
:10231000650B04E0BBF1410F08BF4FF0500B08986C
:10232000411C0891B8F1000F059914F8012B0A54CB
:1023300003DC9DF8400001071AD50898411C08915C
:10234000B8F1000F05990F5412DD761E30B28045AA
:10235000B8BF46460598089B32B22146184400F0A3
:1023600037FB089936B271180891A8EB06000B905C
:1023700005980899084429B2002980F800B003D4D0
:102380002B224270821C04E02D2242700D46821CDA
:102390006D4200212CAB28460AE004460A2094FB3B
:1023A000F0F000EB8005A4EB450403F8014B491C59
:1023B00000B20028F1DC012906DC4BF02000652882
:1023C00004BF302002F8010B00292CAB08D13020CB
:1023D00002F8010B06E0491E585C303002F8010B90
:1023E0000029F8DC059908980844121A099249E076
:1023F00030B229B288421CDA0598089B32B22146D5
:10240000184400F0E5FA089936B271180891ABEB60
:102410000600B8F1000F0B9003DC9DF840000207A6
:1024200004D5059847540999491C0991CDF8308085
:1024300028E00598089B2AB22146184400F0C8FA03
:102440000898761B5844B8F1000F089003DC9DF8FB
:1024500040100A0703D5411C089105990F5430B26A
:102460008045B8BF46460598089B32B204EB0B0185
:10247000184400F0ADFA089836B230180890A8EB6E
:1024800006000B909DF8400000F01400102840F06A
:10249000C280079A08990B988A18099982180C9893
:1024A0008A1882180F98824280F2B580821A0A92A6
:1024B000B1E09DF84200622808D068280ED06A2852
:1024C00014D06C281FD0712810D01CE0D9F800104F
:1024D00051F8040BC9F80010C0B21AE0D9F8001086
:1024E00051F8040BC9F8001080B212E0D9F80000CE
:1024F000C21D22F00702C9F80020D2E9000108320B
:10250000C9F8002006E0D9F8001051F8040BC9F80A
:1025100000100021CDE902019DF8400001075AD5C5
:10252000DDE90223002B08BF002A54D04BF0200025
:10253000782850D1079812A930220A54401C431C15
:10254000079301F800B046E09DF84200622808D0E9
:1025500068280ED06A2814D06C281FD0712810D09B
:102560001CE0D9F8001051F8040BC9F8001040B273
:102570001AE0D9F8001051F8040BC9F8001000B2A5
:1025800012E0D9F80000C21D22F00702C9F80020AD
:10259000D2E900010832C9F8002006E0D9F800109D
:1025A00051F8040BC9F80010C117CDE90201002948
:1025B00002D507982D210AE0BDF84000810702D519
:1025C00007982B2103E0C00705D50798202112AA00
:1025D0001154401C079012A80799014405915946CF
:1025E00002A800F04DF816E001200790D9F800008D
:1025F00050F8041BC9F800008DF848100BE00121C9
:102600002522BBF1000F07918DF8482003D002224C
:1026100007928DF849B00F9A07980A990C9C121AE4
:102620000898521A0B99121A0998521A121A9DF800
:102630004000141B41073FF5D1AA2020002C8DF843
:1026400000007FF7CBAA309E2546FFF7BBBA4FF0BC
:10265000FF3031B0BDE8F08FCBCCCC0C686A6C7425
:102660007A4C00007072696E74665F733A20626122
:102670006420257320617267756D656E74000000BB
:102680002DE9FC4707468A463C6950466F2808BF3B
:10269000082505D0FFF780F9782814BF0A251025F2
:1026A000D7E900013C2680468946BAF1640F18BF7D
:1026B000BAF1690F05D1002903D5D8F1000869EBFB
:1026C0004909B9F1000F08BFB8F1000F0CD1386B00
:1026D00050B9082D3AD197F83800010736D5302285
:1026E0003B2684F83B2031E08DF800A04046494667
:1026F0002A46EB1700F0FEFD3032D0B2761E3A28A3
:1027000001960EDAA255404649462A46EB1700F0DC
:10271000F1FD80465FEA010908BFB8F1000F05D15D
:1027200008E09DF800001218513AEBE7F868A1198B
:102730008842DBD3082D09D197F83800010705D569
:10274000A05D302802D0761E3020A055C6F13C0294
:10275000BA61A119F960386B824208DA821A3A62CA
:102760004FF6EF70398F01403987BDE8F3870028B5
:102770000ED597F8380000F01400102808D17B6BB4
:102780007969386A5B1A1B1A9A1A002AC8BF3A621A
:10279000BDE8F3872DE9D04306460F4614464FF0B7
:1027A0000008DFF8449012E0E00707D542464B46A8
:1027B0003046394600F0C4FC06460F4640464946BE
:1027C00042464B4600F0BCFC641080468946002C13
:1027D000EAD130463946BDE8D0830000A08601002A
:1027E0000000F03F84D7974100002440F8B505462B
:1027F0000E4617461C4600205CB117F8011BB06856
:10280000A847B06030B1F06A401CF0620020641E3E
:10281000F3D1F2BD4FF0FF30F2BD00007072696E6F
:1028200074665F733A20256E20646973616C6C6F07
:10283000776564007072696E74663A206261642024
:10284000256E20617267756D656E74000000000072
:102850006E616E004E414E00696E6600494E460044
:102860003000F0B40246106895681318506803EB06
:102870005004C00748BF4D44A3422DD013F8016B4C
:1028800016F0030004BF13F8010BC01C31090F2917
:1028900007D113F8011B0F3103E013F8017B05F892
:1028A000017B401EF9D10029E6D013F8010BC6F3D5
:1028B0008106032E08BF13F8016B00EB062040428F
:1028C00028440026B71E8F421EBF10F8017B05F872
:1028D000017B761CF6D1CFE7F0BC02F10C0070470B
:1028E000C9B202788A421AB11CBF10F8012FF9E769
:1028F00018BF002070470268531C036011707047B6
:1029000080B500B906A005490B681BB12222002141
:10291000984701E000F006FE222002BD2C4C00206A
:10292000636F6E73747261696E742068616E646C3B
:1029300065723A20626164206D657373616765003A
:1029400000F10103810704D010F8011B820781B157
:10295000FAD10268A2F10131914311F0803104BF34
:1029600050F8042FF6E709BAB1FA81F100EBD10073
:10297000401CC01A70472E00C9B2830706D0521EF1
:1029800022D310F8013B9942F7D11FE0083A13D344
:1029900002F1040241EA012141EA014150F8043BFD
:1029A000121F21BF4B40A3F1013C2CEA030C1CF089
:1029B000803FF3D0C9B2001F083210F8013B521E0D
:1029C00028BF91EA030FF8D818BF0120401E7047B6
:1029D0004AB1000011F8013B521E00F8013B1CBF38
:1029E00011F8013BF8E7704710B5144600F002F803
:1029F000226010BDC1F30A5343B14A0012F5001F13
:102A000028D2A3F2FE32A1EB0251704750EA410CEA
:102A100020D001F0004C31EA0C01B1FA81F204BF80
:102A2000B0FA80F3D2180B3AB2F120032CBF00FAAF
:102A300003F1914041EA0C013EBFC2F1200C20FAA3
:102A40000CF319439040524240F2FD33D21A01EB8D
:102A5000035170470022704741EA030C50EA4C0CC6
:102A600052EA0C0C4FF4001C09D307D01CEB410FA9
:102A70009CBF1CEB430F8B4208BF824270471CEB8C
:102A8000430FFBD8994208BF9042704741EA030CBC
:102A900050EA4C0C52EA0C0C4FF4001C09D307D03E
:102AA0001CEB410F9CBF1CEB430F994208BF9042A7
:102AB00070471CEB410FFBD88B4208BF8242704726
:102AC000124254D440F2FF7C1CEA11530FD06345EC
:102AD00031D09B1863453CBF01EB0251704701F0B8
:102AE000004141EA0C510020AFF30080704750EAEA
:102AF000410320D001F0004C91EA0C011CD0B1FA46
:102B000081F30B3B9A420DD9D21A994051EA0C013C
:102B1000C3F1200C20FA0CFC61449840531C40F295
:102B2000FF7CD7E7914041EA0C01C2F1200C20FA6A
:102B30000CF3194390407047B0FA80F31533202B03
:102B4000E0D3202AEED3203A203B9A4209D9D21A68
:102B500000FA03F141EA0C010020531C40F2FF7C13
:102B6000B8E700FA02F141EA0C0100207047524236
:102B700040F2FF7C1CEA11530DD06345DBD0B2EB71
:102B8000030C3CBFA1EB025170470CF1010221EA9A
:102B9000035141F4801150EA410CCCD001F0004CBB
:102BA000352A27DC30B481EA0C01B2F1200309DABE
:102BB000C2F12003044601FA03F5D0402843D14076
:102BC0009C400CE0C3F12002450020FA03F418BF3A
:102BD00044F0010421FA03F091400C43002174F108
:102BE000004550F1000051EB0C01244230BC7FF451
:102BF0007BAF70476146002076E70000C1F30A53BF
:102C000040F21E42D31A0CDDCA0283F3070342EAE4
:102C1000505242F00042DA4002EBE17282EAE17087
:102C200070476FEAE17203F2E13008B182F00040D0
:102C30007047000010F0004160B148BF4042B0FA58
:102C400080F29040D21CC2F5846241EA025202EB4B
:102C5000D02140057047000070B491EA030F4FF097
:102C6000004540F1BF806B40841A71EB030604D22B
:102C70006E40001BB141121973414FF4001C1CEB54
:102C8000410F34BF7CEB430683E00C0DA4EB1356DD
:102C9000362E00F37C80012E45EAC32341DC43EA53
:102CA000525312BFD20292025B08240545EAC121A9
:102CB00041EA5051D2EBC020994125D407D1B0FA56
:102CC00080F610FA06F162D00020203608E0B1FA52
:102CD00081F6B140C6F1200220FA02F21143B04061
:102CE0004FEAF474B4EB465434F001064FEA74042E
:102CF0000AD8D6F50016760D04F00044F04061FACB
:102D000006F25040F1404840C00A40EA415021F0EC
:102D1000004128BF5FEA500550F1000044EBD1218B
:102D200035E0DB0A45EAC121C90AB6F120050EDD0E
:102D300042EA0242120CC5F1200603FA06F6EB4005
:102D400042EA06056D42984161F100010DE062FA28
:102D500006F5F240554063FA06FC82EA0C02F340A5
:102D60005A406D42904161EB030111F4801F05D17F
:102D7000641E620502D06D004041494121F480117A
:102D8000430875F1004350F1000041EB045170BC61
:102D900070471CEB410F15D223F0004352EA430663
:102DA0000BD04FEA4C0CBCEB410F04D80C0D661E47
:102DB000342EB7DDEBE7801A994150EA410608BF8F
:102DC0000021E4E708BF1CEB430F28BF6FF00001B0
:102DD000DDE7000070B491EA030F4FF000457FF586
:102DE00043AF6B40841A71EB030603D2001BB14161
:102DF000121973414FF4001C1CEB410F34BF7CEBE4
:102E0000430442E00C0DA4EB1356352E4FDC45EA8B
:102E1000C323DB0A45EAC121C912B6F120050DDD45
:102E200063FA05F6EB4086EA0305124218BF45F047
:102E30000105C01851F100010CD213E062FA06F549
:102E4000F2405540F3415A40B340F3405A40801895
:102E5000594107D349085FEA30005FEA350528BFCA
:102E600045F0010501F58011420875F1004250F16D
:102E7000000041EB04514E0016F5001F70BC38BF36
:102E800070470020090D090570471CEB410F10D257
:102E900052EA43060BD0BCEB410F05D80C0DAB43F7
:102EA000661E342EB6DD02E0AB438018594170BC7B
:102EB000704770BC70470000F0B540F2FF7581EAC2
:102EC000030C0CF0004C15EA11541DBF15EA135702
:102ED000AC42AF42E5E0BC41C1F31301C3F31303BD
:102EE000801A994143F4801304D2641E00184941AA
:102EF00080185941C90241EA5051B1FBF3F603FB76
:102F00001611A2FB0675D7EBC020A94102D2761E8E
:102F100080185941C90241EA5051B1FBF3FE03FB4D
:102F20001E11A2FB0E75D7EBC020A94103D2AEF152
:102F3000010E80185941890241EA9051760546EA0E
:102F40008E2EB1FBF3F603FB1611A2FB0675D7EB31
:102F50008020A94102D2761E80185941C90241EA57
:102F600050514EEA060EB1FBF3F603FB1611A2FB1D
:102F70000675D7EBC020A94102D2761E80185941B0
:102F8000C90241EA5051B1FBF3F703FB1711A2FB51
:102F90000735D3EBC020A94167F100070CBF004201
:102FA00047F0010766F3D5274FEA1E31B80814F53C
:102FB000806412DDBD0775F1004250EB0E5051EBFD
:102FC000045111F5801F5CBF41EA0C01F0BD4CF0CB
:102FD0007F6141F0E0410020F0BDBD076D0840EA8F
:102FE0000E5041F48011D4F10104B4F120060ADA44
:102FF000C4F120060200E04001FA06F3E140184364
:10300000B24015430EE0342C13DCC6F1200445EA2F
:1030100040056D0820FA06F2154321FA06F0A1409A
:103020000D43002175F1004250F1000051EB0C01FD
:10303000F0BD00205FEA0C01F0BDCFB992185B41F2
:10304000B3FA83F704BFB2FA82F6BF190B3FB7F1A8
:1030500020062FBF02FA06F3BB40C7F1200622FA72
:1030600006F638BF3343BA401CB1E419641E33E797
:103070007F4231F00041B1FA81F404BFB0FA80F62A
:10308000A4190B3CB4F120062FBF00FA06F1A140B1
:10309000C4F1200620FA06F638BF3143A0403C1B9D
:1030A0001AE7AC421ABF05EA1357AF4212E050EAE2
:1030B00041061CBF52EA4306BFE750EA41073046CB
:1030C00061461CBF41EA0551F0BD52EA430C08BFFE
:1030D000C143F0BD00204FF4001616EB410F98BF1E
:1030E00016EB430F08BF16EB410F24BFC14305E0A9
:1030F00016EB430F0CBF61464CEA0551F0BD0000D2
:10310000400D40F21E4C40EAC120BCEB115C40F087
:10311000004003D48CF30701C84070476FEAE170A8
:103120007047000050B1B0FA80F18840C91CC1F569
:103130008461090501EBD0214005704701467047C5
:1031400030B540F2FF7C1CEA11541DBF1CEA135538
:10315000644565453FE0641981EA030C6FF35F53F2
:103160000CF0004C43F48013C90241F0004141EAE5
:10317000505EC5021100A5FB020200284FF00000BE
:10318000EEFB01204FF00001E3FB052118BF42F0E8
:103190000102401800214941E3FB0E01A4F58064BF
:1031A0000D0302D292184041494154F1010470DDEF
:1031B000450872F1004250F1000051EB0451A1F5B5
:1031C000801102D441EA0C0130BD40F2FF7E4CEA8E
:1031D0000E51002030BD0CEA1355644518BF6545FB
:1031E00081EA030C0CF0004C41D050EA410E1CBFA8
:1031F00052EA430E02E06146002030BD24422C44D6
:103200001BD15FEA050EF6D0090302BF014600207C
:10321000AEF1140EB1FA81F5AEEB050401FA05FE2C
:103220000C35C5F1200100FA05F5C8404EEA000E44
:103230006FF35F5343F480139CE733F00043B3FA1A
:1032400083F504BFB2FA82FE75440B3D641BB5F1F1
:10325000200E2FBF02FA0EF3AB40C5F1200E22FA6A
:103260000EFE38BF43EA0E03AA40641C7CE750EA16
:10327000410E14BF52EA430E6FF000014FF40015E7
:1032800015EB430F8EBF194615EB410F9DE7B4D8E0
:1032900030BDD4F10104B4F120050FDAC4F12005EA
:1032A000520828BF42F0010210FA05FE01FA05F5A6
:1032B0007244E2BFE0402843E1400FE0352C9ADC45
:1032C000C5F1200452EA400220FA05F218BF42F08C
:1032D000010231FA05F0A1400A43002172F10042D7
:1032E00050F1000051EB0C0130BD00000048704768
:1032F0004C170020BBBBE1B1B2F5803F80F07E806F
:10330000022A1ED98C46B1FBF2F102FB11C31B0449
:1033100043EA1043B3FBF2FC02FB1C3380B240EAE9
:103320000343B3FBF2F002FB103240EA0C400023EF
:103330007047022A05D98446B0FBF2F002FB10C2A6
:1033400070474AB105D100F0010249085FEA300038
:10335000704700220023704700F0E8B80B0002001D
:10336000002100207047904271EB030CF6D3B3F5B7
:10337000803F2FD2F0B5B3FA83F7B1FA81F4A7F109
:103380000F0E3D1B5340CEF1200602FA0EF2F34120
:103390005340B5F10F0746D80F3C2C444140C4F1CF
:1033A0002006A040F1414140B1FBF3F603FB1611AA
:1033B000A2FB0645001BA94102D2761E8018594186
:1033C00080EA010221FA0EF362FA0EF200215A405D
:1033D0003046F0BD30B4B1FBF3FC03FB1C11A2FB83
:1033E0000C45001BA94103D2ACF1010C80185941D6
:1033F00030BC02460B46604600217047B2F1807F28
:1034000065D3F0B5B2FA82F7B1FA81F4C7F10F06CD
:103410003D1B22FA06F307F1110EF24120355A4006
:10342000B5F10F07B8D94140C4F12006A040F141E1
:103430004140B1FBF3FC03FB1C11A2FB0C45001B3C
:10344000A94103D2BCF1010C801859410F2F12D3AE
:103450000F3FC90341EA5041B1FBF3F603FB1611DC
:10346000A2FB0645D4EBC030A94102D2761E8018DB
:10347000594146EACC3C07B34140C7F12006B84069
:10348000F1414140B1FBF3F603FB1611A2FB0645E7
:10349000001BA94102D2761E8018594180EA010220
:1034A00021FA0EF3C7F1200462FA0EF20CFA07F0CB
:1034B0005A402CFA04F13043F0BD80EA010221FAAF
:1034C0000EF3002162FA0EF260465A40F0BD8C46BF
:1034D000B1FBF2F102FB11C31B0243EA1063B3FB21
:1034E000F2FC02FB1C331B024CEA002043EA10638F
:1034F000B3FBF2FC02FB1C331B024CEA002043EA44
:103500001063B3FBF2FC02FB1C331B024CEA0020ED
:1035100043EA1063B3FBF2FC02FB1C324CEA0020CE
:1035200000237047012000F003B80000704700003E
:1035300080B5AFF30080024A11001820ABBEFBE754
:1035400026000200603000EB8100006800F0F840C7
:103550007047603000EB8100016821F000410A43B0
:1035600002607047C06800F44060401E8041C00F98
:103570007047CB0D10B5143003F004031818090D73
:1035800001F01F01036807248C40A34302FA01F1F4
:103590001943016010BDF8B50446002000260090D4
:1035A0000CB90120F2BD04F15805686828B920461D
:1035B00000F0D4FC0020A860287021688868800092
:1035C00004D58A68DFF8E40202408A6021688868CE
:1035D000C00012D48A68DFF8D802024042F080525C
:1035E0008A60DFF8D012DFF8D0220868B0FBF2F270
:1035F000521C5200009200F0B5FB21688868C000A0
:1036000008D46A6842F010026A600126A86840F097
:103610000100A8608B6868689B08C20600D4D807C0
:1036200000F1BB806A6822F4807242F002026A6094
:103630008868C0072CD4DFF88422B1F1A04F18BFEE
:10364000914207D1DFF87802DFF8787200683F68AE
:1036500038430CE0DFF87002DFF8707200683F68F2
:10366000DFF86CC2DCF800C038434CEA000010F010
:1036700001000DD1B1F1A04F16BF9142DFF85412F5
:10368000DFF854120A68606822F47C1202430A6070
:1036900004F12402607F9769E16892F800C047EA6C
:1036A0004037A0680F430743BCF1010F47EA0C47BE
:1036B00003D15068401E47EA4047906820B100F4AB
:1036C00078700743D06807432168DFF81002D1F80B
:1036D0000CC000EA0C000743CF6021680F69106935
:1036E00027F0406707430F61DB072168886840D4F3
:1036F00000073ED4CB68DFF8E801277F0340107D48
:1037000043EA873343EA4003CB60206900282068FE
:1037100001690CD041F4803101612168D1F8C030D9
:1037200020699B0B40EA8333C1F8C03009E021F4E3
:10373000803101612068D0F8C010890B8903C0F87E
:10374000C010107F01280FD123681F69106A516AC9
:103750006FF38A070743906A0F43D16A07430F4309
:1037600047F001071F6104E020680169490849002A
:103770000161606901282068016B05D1226A09098D
:10378000521E42EA011101E0090909010163012009
:10379000696860F30101696004E0686840F0100046
:1037A000686001263046F2BD2DE9F84305460E4615
:1037B0002868DFF808819146B0F1A04F16BF404558
:1037C000DFF81011DFF810110C688168490704F068
:1037D0001F045DD405F158073A78012A58D0012119
:1037E000DFF87C253970904218BF002C03D0052CDF
:1037F00018BF092C48D1284600F067FA010040D1D3
:103800007968DFF85805014041F4807179602868D3
:1038100040451CBFDFF8CC10884200D11CB9786845
:1038200020F4801078607868C10446BFB86820F042
:1038300006000020B8604B46686D0FF27951C162F6
:10384000686DDFF830150163686DDFF82C15416392
:103850001C212A68116000203870324628684168AF
:1038600041F0100141602868C16841F00101C16068
:10387000286800F14001686D00F01CFD00F00BF8B5
:1038800007E00021397004E0002201203A7000E0D6
:103890000220BDE8F2832A68DFF8E01493680B4049
:1038A00043F004039360704700000000C0FFFF5F17
:1038B000C0FFFF7F48170020400D030000010050AB
:1038C000080000500801005008040050080500508E
:1038D0000806005008030050080700500740F0FF9A
:1038E000FDBFFFFF00050050F8B50646002006F1B9
:1038F00058050F46009000242978012901D10220A3
:10390000F2BD0120287030688168490700F1B2815A
:103910007A6839689309303003F00C03181802F004
:103920001F02D0F800C01F239340C1F384612CEA2A
:10393000030301FA02F21A43026030688268816868
:1039400052074DD409074BD4BA68B2F1004F08D1E1
:1039500039680022FFF70DFE3068416941F00041EF
:1039600006E03968FFF705FE3068416921F0004143
:1039700041613068C1683A69042A32D060303B68DE
:1039800000EB820CDFF8FC03DCF80020024003F0BF
:10399000F8431343C9087A69480000F006008240E2
:1039A000134343F00043CCF8003031683A69B869FA
:1039B000603101EB82010B6823F0807318430860CB
:1039C000387F01280CBF4FF00070002031683A6941
:1039D000603101EB82010B6823F00073184308602B
:1039E00078E00021FFF7AEFD40033068214604D1A6
:1039F000FFF7A8FDC0F3846003E0FFF7A3FD00F02C
:103A000049F939684A030EBFC1F3846191FAA1F103
:103A1000B1FA81F1884204D1306800220021FFF719
:103A200098FD00F044F9400304D100F040F9C0F3E0
:103A3000846003E000F03BF900F02CF939684A0398
:103A40000EBFC1F3846191FAA1F1B1FA81F188420C
:103A500004D1306800220121FFF77BFD00F023F93B
:103A6000400304D100F01FF9C0F3846003E000F0CC
:103A70001AF900F00FF939684A030EBFC1F38461E7
:103A800091FAA1F1B1FA81F1884204D130680022A3
:103A90000221FFF75EFD00F002F9400304D100F0BF
:103AA000FEF8C0F3846005E000F0F9F890FAA0F0A9
:103AB000B0FA80F039684A030EBFC1F3846191FA0D
:103AC000A1F1B1FA81F1884204D1306800220321CA
:103AD000FFF73FFD31688868C00763D4FA683B6828
:103AE000D1F8B0C0DFF8A0E202F01802C3F3120070
:103AF0002EFA02F22CEA000013400343C1F8B03062
:103B0000F868DFF8881288424CD1386841030EBF4C
:103B1000C0F3846290FAA0F1B1FA81F2521C012143
:103B200002F01F020A2A1BD2420306D1C0F38462AC
:103B3000C0F38463C0F3846001E000F0A4F8521C79
:103B40005B1C920603F01F03401C02F0F8429940F0
:103B500000F01F00114300EB400041EA00511DE05E
:103B6000420306D1C0F38463C0F38462C0F384606F
:103B700001E000F088F85B1C521C401C9B0602F020
:103B80001F0200F01F0003F0F84391400A38194368
:103B900000EB400041EA005141F00071BA68306822
:103BA000FFF7E7FC3868DFF8E811084267D03168B2
:103BB000DFF8E021DFF8E031DFF8C471B1F1A04FA8
:103BC00016BFB94216461E463668DFF8D0C106F069
:103BD000E07660451CBFDFF8C8E1704524D15FEA9C
:103BE000062C21D4B1F1A04F04D0DFF8740181423A
:103BF00045D11A461168DFF8AC0121F0E0710E439F
:103C000046F4000616600168DFF89C21B1FBF2F271
:103C1000521C0C2042430092009800281EBF0098BE
:103C2000401E0090F8D12AE0DFF880E170450DD108
:103C3000F00124D4B1F1A04F1CBFB9421A4610685C
:103C400020F0E070064346F0807611E0DFF860C1B6
:103C5000604514D1700212D4B94210D0B1F1A04F16
:103C600018BF1A46106820F0E070064346F480063C
:103C7000166004E0686840F02000686001240020BD
:103C800028702046F2BD90FAA0F0B0FA80F21346F8
:103C90001046704790FAA0F0B0FA80F07047306894
:103CA0000321FFF74FBC30680221FFF74BBC30689F
:103CB0000121FFF747BCE06D40F01000E065206E89
:103CC00040F001002066012070477CB504460020CA
:103CD000009021688868C2073CD488686FF39E1002
:103CE000002834D18868254D284040F001008860C4
:103CF0002068B0F1A04F1BBF2149884225482648C3
:103D0000006800020AD52749274B0A68B2FBF3F383
:103D10005B1C0C204343009300F024F800F0CCFB24
:103D2000064620680168CA0714D48068C00705D415
:103D300020688168294041F00101816000F0BCFBEE
:103D4000801B0328EDD320680168CA07E9D4FFF778
:103D5000B2FF76BD002076BD00000000FEF1FFFF3F
:103D60000006005002E00098401E009000980028D5
:103D7000F9D17047213E0008273E0008C0FFFF7FB1
:103D80000001005000F0FF03FFFF070000007F402C
:103D9000000008800803005008070050000021C3FD
:103DA0001000C09048170020400D0300000052C7CB
:103DB000000084CB10B5846AE16D11F0500F22D160
:103DC000E06D40F40070E06521680868020708466D
:103DD00006D5FFF7C7FB88B12068C168880401E0F9
:103DE000C16888070AD4E16D21F48071E165E06D56
:103DF000C10403D4E06D40F00100E0652046BDE859
:103E0000104000F05FBBE16DCA0604D52046BDE856
:103E1000104000F058BB616D4A6BBDE81040104780
:103E2000806A00F051BB806AC16D41F04001C165FC
:103E3000016E41F00401016600F045BB18B58BB07E
:103E400000F046F800F049F8DFF854434FF0A04086
:103E500000F048F808B100F0A5FB00F033F808B115
:103E600000F0A0FBDFF83C1325E010B588B000F0AF
:103E700034F8DFF83443DFF8340300F033F808B1E6
:103E800000F090FBDFF8281352E018B58BB000F07B
:103E90001FF800F022F8DFF81C43DFF81C0300F0E5
:103EA00021F808B100F07EFB00F00CF808B100F03A
:103EB00079FBDFF8081300F042F808B100F072FB5C
:103EC0000CB010BD0020089008A9204600F073BB7C
:103ED0000C22002108A800F011BC20220021684615
:103EE00000F00CBC20604FF44031616001200421DF
:103EF0002062A16104F1240000220121A260E2609D
:103F000022616261A28302708260C2600175826177
:103F100002772046FFF73FBB10B588B0FFF7DDFF03
:103F2000A74CA848FFF7DEFF08B100F03BFBA6490D
:103F300000F005F808B100F035FB08B010BD0091A5
:103F400006220192002102917F2203920421049112
:103F50000022059269462046FFF7C6BC2DE9F04FC6
:103F60009BB0804614220021684600F0C7FB542213
:103F7000002106A800F0C2FBD8F80020934CDFF81F
:103F80005092944D944FB2F1A04F4FF4806B4FF488
:103F9000807A4FF000514FF4004329D100F0CBF864
:103FA00008B100F0FFFA00F0CBF842F001022A60FD
:103FB0000822286800F0010005900323059800926C
:103FC000396000220193029269464FF0904000F060
:103FD0009FFB0021A160E1600520802160602161DC
:103FE00020200021C4F8009000F09FF821628EE0AC
:103FF000DFF8B8C1D8F85400624504F1880635D11D
:1040000000F099F808B100F0CDFA00F099F842F00C
:1040100002022A604FF40062286800F00200059056
:10402000032305986D480092396000F0B3F809F158
:104030001400206624210020A0666166802020678D
:1040400000212020E067E166C4F88010C4F874A065
:10405000C4F878B004F1600000F0C2F808B100F0D4
:10406000A1FA04F16000C6F8008059E0DFF848C109
:1040700062454FF000414FF4803328D106931891E8
:1040800000F05BF808B100F08DFA00F068F8022249
:1040900000F077F809F12800B06325210020306492
:1040A000F1638020B0640021202070657164B165E7
:1040B000C034C6F84CA0C6F850B0204600F090F8C6
:1040C00008B100F06FFA2046C6F8608028E03D4E47
:1040D000B24225D10693189100F02FF808B100F0F4
:1040E00061FA00F03CF84FF4805200F04AF804F511
:1040F000907409F13C00262120606160002280213B
:104100002020A260E260216100F00FF822622046C8
:1041100000F066F808B100F045FA2046C4F828809F
:10412000C8F854001BB0BDE8F08FC4F814A0C4F860
:1041300018B0E06170470693179106A800F0E2BB43
:104140003968491C012908D1286840F400502860CA
:104150002A6802F40052059205982A687047796827
:10416000491C012908D1286840F4804028602A6849
:1041700002F48042059205982A6842F002022A6001
:104180007047286800F00200059003230598134843
:1041900000927960002201930292694600F0B8BA59
:1041A000904900201000C010FC4900200001005080
:1041B0000040C03A684A0020000400500200300469
:1041C000D44A0020000500500800900CE44600206E
:1041D000080002404C100240EC4B00200004004854
:1041E00038B5040001D1012032BD2168DFF8A422D6
:1041F000914204F1240500F044F80221697020681E
:104200000268A068E16823686FF30E120243206918
:104210000A4361690243A0690A43E1690243206AD3
:104220000A4302431A60204600F00BF9A068B0F57B
:10423000804F04BF00216160696A207900F014F8A2
:1042400038B1052805D2204600F016F900F012F822
:1042500003E0002028636863A8630021A9610120AE
:1042600068702970002032BD0860A96AE86A486059
:1042700060687047296B00200860696BA86B486014
:1042800070470BD2DFF8100241181423B1FBF3F191
:104290008900DFF808222962EA617047DFF800022E
:1042A00041181422B1FBF2F18900DFF8F80129620C
:1042B000E8617047F8B5044604F12406002530781B
:1042C000012801D10220F2BD012030707778012F42
:1042D00030D1022070700027B7612068D0F800C08C
:1042E0004FEA5C074FEA470CC0F800C0204600F0D8
:1042F0008CF82168F06820B10A6842F00E020A606A
:1043000008E0086820F0040008602068016841F0B7
:104310000A010160706A0168CA0301D500F00EF855
:10432000306B08B100F00AF82068016841F0010123
:10433000016001E0357002252846F2BD016841F4B4
:10434000807101607047F8B500F124010423CA6947
:1043500014680268156891F8206006F01F0603FAD9
:1043600006F73C4210D06F070ED51468A50603D49B
:10437000146824F00404146000F03EF8C9680029B1
:1043800039D0BDE8F4400847022303FA06F73C425F
:1043900013D0AF0711D51468A50605D4146824F00E
:1043A0000A04146001224A7000F026F800220A7004
:1043B000896801B3BDE8F4400847082303FA06F60C
:1043C000344218D02B0716D5146824F00E0414605C
:1043D000012291F82030CC6903F01F039A406260FB
:1043E000012301228A614B7000220A70096911B110
:1043F000BDE8F4400847F1BD91F82020CC6902F0F7
:104400001F02934063607047000070B5C56C046D77
:104410006C60446D14B1856DC46D6C60012490F8BE
:104420004450066C05F01F05AC407460046863607E
:104430008068102802D1A260E16070BDA160E260D6
:1044400070BD10B50168134B174A994228BF20323E
:10445000446C01F0FF01A4080839142302EB840224
:10446000B1FBF3F18264012301F01F010F4AC26422
:1044700003FA01F1016510BD01790D4A0D4B836509
:1044800002EB81024265491E012201F01F018A40B0
:10449000C265704708040240F8FFFDBF00000240FB
:1044A000F8FBFDBF00040240000802408008024003
:1044B000FC0802404009024001480068704700BF04
:1044C0003C170020704770477047000080B500F02F
:1044D0005FFB00F024F800F06BFB00F0EBFBFFF754
:1044E000ADFCFFF7C2FCFFF7D0FCFFF715FD00F0B5
:1044F00019FC00F049FE00F0E9FC012000F0B2FCDC
:1045000000F00CFF00220221244800F0E5F96420AD
:1045100001F0D0F801F0E2F801F0F8FCFEE700B598
:1045200093B03822002105A800F0E8F814220021F9
:10453000684600F0E3F8002001F00CFD4FF48072B3
:1045400008920221022205910C920D924021042230
:1045500009910E92552102220F91109211921292FE
:1045600005A801F04DFD08B100F01CF80F20032153
:104570000090019100220292039204920421684665
:1045800001F01CFF08B100F00DF813B000BD006889
:104590000349884208BF02F059B87047001000482C
:1045A000002C014072B6FEE70092606840F02000E7
:1045B0006060227070472DE9F04F00F158049BB005
:1045C00023780022012B08BF022024D0012525706A
:1045D00000261796002518950368414D3E4EB3F10D
:1045E000A04F10D10096009FBF68D3F808C05FEAC3
:1045F0004C7C65D47F0763D4B3F1A04F16BFB342A0
:10460000384F394F08E0354FBB4208BF0095EAD01C
:10461000FFF7CBFF01205BE00B68DFF8D0C0DFF8CD
:10462000D080DFF8D0E0DFF8D09053B3D7F800A007
:104630004B6890F838B02AF4604A43EA0A0343EA28
:104640004B3AC7F800A00068B0F1A04F18BFB042C5
:1046500004D1D8F80000B368184306E0D9F8000088
:10466000AB68DEF800501843284310F001002CD14D
:104670003B68086889680CEA0303184341EA000CA8
:104680001BE03B6823F460433B600068B0F1A04F3F
:1046900018BFB04204D1D8F80000B168084306E062
:1046A000D9F80000A968DEF800300843184310F07C
:1046B00001000AD138680CEA000CC7F800C004E019
:1046C000616841F0200161600122002020701046E5
:1046D0001BB0BDE8F08F0000000100500004005046
:1046E000000500500803005008070050E0F0FFFFED
:1046F00008000050080600500804005010B5044699
:1047000010460A460146204601F0A8FF204610BD8B
:104710002DE9F84F0027734A734B4FF00F080546F9
:104720000E4638E0714CA54214BF062405248C4087
:104730006F4944EA0E0441F82C40C143D2F808C046
:10474000746801EA0C0CE40248BF40EA0C0CC2F8A1
:1047500008C0D2F80CC0746801EA0C0CA40248BF6F
:1047600040EA0C0CC2F80CC0D2F804C0746801EA2C
:104770000C0CA40348BF40EA0C0CC2F804C0D2F8E9
:1047800000C001EA0C0C7168C90348BF40EA0C0C78
:10479000C2F800C07F1C316831FA07F000F0948045
:1047A0000124BC4014EA0100F4D04FEA470C032175
:1047B00001FA0CF16FEA010E716801F00309B9F119
:1047C000010F1CBF01F00301022912D1A968D6F81C
:1047D0000C900EEA010109FA0CF949EA0101A960FD
:1047E000696821EA04047168C1F30011B9400C43FF
:1047F0006C60B900347904F00304032C21D0EC6818
:10480000D6F808900EEA040409FA0CF949EA0404FF
:10481000EC60347904F00304022C12D1FC0805EB9F
:10482000840401F01C09D4F820A008FA09FB2AEA44
:104830000B0AD6F810B00BFA09F949EA0A09C4F8CC
:1048400020902C680EEA040E347904F0030404FA74
:104850000CF444EA0E0CC5F800C0746814F4403F30
:1048600098D0D3F800C0224C4CF0010CC3F800C023
:104870004FEA970CD3F800E00EF0010ECDF800E0FF
:1048800001F00C01DDF800E054F82C4008FA01FEBC
:1048900024EA0E0EB5F1904F08BF002413D0154C3A
:1048A000A54208BF01240ED0134CA54208BF022424
:1048B00009D0124CA54208BF032404D0104CA542D5
:1048C0007FF430AF042432E7BDE8F18F006908407F
:1048D00018BF0120C0B270470AB181617047816280
:1048E00070470000000401406010024000140048BE
:1048F000080001400004004800080048000C00487F
:10490000001000482DE9FC4705464FF000082868D4
:10491000DFF87062DFF87072010353D5F06CC100EC
:10492000C1460AD4F06C40F08050F0644FF00109A9
:10493000F06C00F0805000900098DFF85042206842
:1049400040F480702060FFF7B7FD82462068C10503
:1049500006D4FFF7B1FDA0EB0A000328F6D321E04F
:10496000386810F440701CBF296D88420BD038683D
:10497000396841F48031396020F440703A6822F49B
:1049800080323A603860C0070FD5FFF795FD0446C6
:104990003868810709D4FFF78FFD001B41F2893188
:1049A0008842F5D34FF0030805E03968286D21F4FB
:1049B000407101433960B9F1000F03D0F06C20F071
:1049C0008050F0642878C10705D5F26F68689208B6
:1049D00040EA8202F2672978880705D5F16FA86856
:1049E00021F00C010143F1672978480705D5F16FE3
:1049F000E86821F030010143F1672978080705D5FF
:104A0000F16F286921F0C0010143F1672978C806D8
:104A100005D5F16F686921F440710143F167297888
:104A2000880605D5F16FA86921F440610143F1675B
:104A30002978480605D5F16FE86921F44051014312
:104A4000F1672978080605D5F16F286A21F44041FD
:104A50000143F1672968C80505D5F16F686A21F43B
:104A600040310143F1672968880305D5F968A86AD0
:104A7000890840EA8101F9602968880505D5F16F48
:104A8000E86A21F440210143F167296848050AD505
:104A9000F16F286B21F440110143F167296BB1F5E7
:104AA000801F00F069F8296808050AD5F16F686B66
:104AB00021F440010143F167696BB1F5800F00F00B
:104AC0005BF82968C8040AD5F16FA86B21F0407122
:104AD0000143F167A96BB1F1807F00F04DF82968BF
:104AE000880408D5F16FE86B21F040610143F1675C
:104AF000E96B00F03FF82968480408D5F16F286C8D
:104B000021F040610143F167296C00F033F8296816
:104B100008040AD5F16F686C21F040510143F16738
:104B2000696CB1F1805F00F01FF82968C8030AD5ED
:104B3000F16FA86C21F040410143F167A96CB1F11C
:104B4000804F00F011F8296848030AD5F968E86C2D
:104B500021F440110143F960E96CB1F5001F00F048
:104B60000BF84046BDE8F68703D1306840F480304A
:104B700030607047B1F1006F03D1306840F48010AD
:104B8000306070470C1002409010024000700040EE
:104B9000032010B501F079FD0F2001F0B7FD0024CE
:104BA000002814BF012401F0F7FD204610BD0000CD
:104BB00070B586B0142200216846FFF79FFD334888
:104BC000334E0168334C344D41F0040101600268FA
:104BD00002F0040205920599026842F02002026088
:104BE000036803F0200300F059F842F0010202606C
:104BF000036803F0010300F051F842F00202026082
:104C0000036803F0020300F049F842F00802026072
:104C1000036803F0080300F041F842F0100202605C
:104C20000022006800F0100005904FF40051059834
:104C30003046FFF751FE00224FF428512046FFF77F
:104C40004BFE002202212846FFF746FE4FF400519A
:104C500000F028F83046FFF75BFD4FF4285100F0D4
:104C600021F82046FFF754FD032000210090019118
:104C7000029120466946FFF74BFD022100F012F831
:104C80002846FFF745FD06B070BD00004C100240FD
:104C900000080048000C00480010004805930599E2
:104CA0000268704700910122002102910391019254
:104CB0006946704780B51A48016841F004010160F7
:104CC000026802F0040200920099026842F00102B8
:104CD00002600022006800F00100009005210098A9
:104CE0000B2001F0DFFC0B2001F0FAFC0022052173
:104CF0000C2001F0D7FC0C2001F0F2FC0022052171
:104D00000D2001F0CFFC0D2001F0EAFC002205216E
:104D10000E2001F0C7FCBDE802400E2001F0E0BC0F
:104D20004810024010B53D4C3D483E4920600022ED
:104D30000120E0606160A26022616261A261E261C3
:104D40002262204601F048FD08B1FFF72BFC00214C
:104D5000204601F0A5FF08B1FFF724FC0021204602
:104D600001F0B3FF18B1BDE81040FFF71BBC10BD48
:104D700018B59BB00446142200216846FFF7BEFC1C
:104D80005422002106A8FFF7B9FC20682449884274
:104D900041D14022002106920D9106A8FFF7B2FDF5
:104DA00008B1FFF7FFFB204C206840F001002060B5
:104DB000216801F0010105910598216841F0020187
:104DC00021604FF40041226802F002020592122293
:104DD0000598009101920021029103914FF09040BB
:104DE000042104916946FFF793FC0022029203928A
:104DF00080201221009001910422049269460B4800
:104E0000FFF786FCE06840F40010E060E06800F422
:104E10000010009000981CB010BD0000404B002016
:104E200000540040C285B2404C10024000040048CB
:104E300001B584B000F00EF8002204E001B584B0A2
:104E400000F008F840227821DFF8A80401F020FDE6
:104E500005B000BD6420012104AA029001910092D6
:104E600001237047010002D10021A62003E00128A0
:104E700002D10021A72000E07047002918BFFFF7EA
:104E8000DDBFD5E700218D20F7E770B50024DFF8FE
:104E9000685404F1B0000021C0B2FFF7EEFF00211A
:104EA0000020FFF7EAFF00211020FFF7E6FF0026B1
:104EB0002819F1B210F83100FFF7C0FF761CF0B2EC
:104EC0008028F5DB641C082CE3DB70BD38B50020BE
:104ED000DFF824140025002200F005F8FBDBFFE7D3
:104EE000BDE83140D1E70B18D4B203F83450521C5E
:104EF000D3B2802BF7DB401C08287047802800DBEA
:104F0000704730B50B46402B16DAC908C1F10701CE
:104F1000C9B2C3F10704DB08012504EBC304DFF8C1
:104F2000D83303EBC00005FA04F4435C002A14BF35
:104F30001C4323EA0404445430BD70B5DFF8B83391
:104F4000CA0803EBC0008B0801EB5376F608845CBB
:104F50000125A1EBC60105FA01F161EA0401C9B21C
:104F6000C943815470BD2DE9F843089C06460D469F
:104F70009146984608E02246F0B2FFF7BFFF7F1C3B
:104F8000F9B28845F7D2761CF1B2894528BF2F4681
:104F9000F6D2BDE8F1832DE9FE4F83460C461E464E
:104FA000DDF830A0A04616F0070018BF012000EB86
:104FB000D30371084B43A2F12000DBB2C0B20193CE
:104FC0000025009003E044460BF1010B6D1C019895
:104FD000854239DA0C2E07D1009ADFF820130C2015
:104FE00042438818475D15E0102E08D10099DFF87C
:104FF0000C0300EB01122A4492F874740AE0182E94
:1050000022D1009ADFF8F412242042438818284461
:1050100090F8647A4FF0080912E0BAF10102924167
:10502000D20FE1B25FFA8BF0FFF768FF641CE0B2C9
:105030007F00A0EB0800B042C5D0B9F10109C5D08E
:105040003806EAD55246ECE7BDE8F78F2DE9FE4F6A
:1050500082B006468B469DF810108DF80160C90895
:105060008DF800104FF000099DF810100191DA46FC
:105070009DF80000411E00288DF8001059D09DF8C1
:105080000C4001984443A11004EB517409EBE40473
:10509000E4B209F10109002712E05FFA8BF1F0B2E6
:1050A000FFF74BFF20E0761C9DF80100019AF1B25A
:1050B000091A914204BF06460AF1080AD3467F1C2A
:1050C00001988742D4DA9DF81010102913D18C482A
:1050D00000EB0411CD5D29E0E807DED501225FFA7F
:1050E0008BF1F0B2FFF70AFF6D08B8F101080BF180
:1050F000010BF1D1D7E7182908D14820804910FBCE
:1051000004F00844C01990F820540FE020297C488E
:1051100005D100EBC410C01990F8F85406E04029FE
:1051200007D100EB4420C01990F8F8564FF008085A
:10513000D2E705B0BDE8F08FF8B505460E46174634
:105140001C461CE06008C0F18000E9B28842BCBF88
:105150000025A6192046C0F14000F1B2884203DACA
:10516000FFF7B4FE0025002601200090234617F823
:10517000012BF1B2E8B2FFF70EFF05EB54053878CA
:1051800020385F28DED3F1BD80B50021AE20FFF7C7
:1051900074FE0021D520FFF770FE00215020FFF79C
:1051A0006CFE0021A820FFF768FE00213F20FFF7DA
:1051B00064FE0021D320FFF760FE00210020FFF7EE
:1051C0005CFE00214020FFF758FEFFF75BFE002148
:1051D0001420FFF752FE00212020FFF74EFE002191
:1051E0000220FFF74AFE0021A120FFF746FE002122
:1051F000C020FFF742FE0021DA20FFF73EFE00212B
:105200001220FFF73AFE00218120FFF736FE002131
:10521000EF20FFF732FE0021D920FFF72EFE0021FC
:10522000F120FFF72AFE0021DB20FFF726FE0021F8
:105230003020FFF722FE0021A420FFF71EFE0021F0
:10524000A620FFF71AFE0021AF20FFF716FEBDE8EB
:1052500001403BE62DE9F8468246894686B016466F
:105260001D46012700200A2101E04F43401CA842AF
:10527000FBDB0024B5EE400AF1EE10FA44BF012436
:10528000B1EE400A00EE907AF8EEE00A20EE800AD5
:1052900010EE100A01F044FD00221A4BFDF7DCFC71
:1052A000FDF7ACFC90FBF7F207FB12073DB9002CB1
:1052B00014BF0EA10EA101A801F056FD0AE0002CBA
:1052C00000972B4614BF0FF240010FF2480101A8CE
:1052D00001F04AFD49465046F3B201AAFFF72CFF00
:1052E000FFF7D3FD07B0BDE8F08600002D25640070
:1052F00025640000404B0020E4420020D801000853
:10530000380000200000E03F2D25642E25302A645F
:105310000000000025642E25302A64007CB5FFF7CC
:10532000D5FD10231822112100F092F91023192223
:10533000112100F055F90120009010233A2211218B
:105340002220FFF728FE984C2078FF280FD101215A
:1053500000911023322200210020FFF71CFE0120C3
:1053600000901023302200210020FFF714FE207847
:10537000E8B9102302220021FFF768FE1023032260
:1053800000F02DF91023042200F014F900F02BF99D
:105390003120FFF75BFE0120009010236D2200F00A
:1053A00074F900F00BF911213420FFF7F4FD207897
:1053B0007E4D012826D110230F2200F048F910233A
:1053C000102200F00CF900F024F900F01CF9287804
:1053D00048B900F066F900F04CF900F028F900F047
:1053E00002F95B2008E001280CD100F05BF900F025
:1053F00016F900F0F8F85320FFF728FE00F0DEF869
:1054000000F043F92078022826D11023112200F061
:105410001EF91023122200F0E2F800F0FAF800F072
:10542000F2F8287848B900F03CF900F022F900F0D1
:10543000FEF800F0D8F85B2008E001280CD100F05D
:1054400031F900F0ECF800F0CEF85320FFF7FEFD44
:1054500000F0B4F800F019F92078032866D1102381
:10546000092200F0F4F810230A2200F0B8F8504E98
:10547000307878B900F00DF900F0F3F800F0DFF8BB
:1054800000F0BBF800F0B3F81023172211212B20F5
:10549000FFF7DCFD3078012816D100F0FAF800F0B3
:1054A00098F82A20FFF777FD1023172200213320D8
:1054B000FFF7CCFD10230B2200214420FFF7C6FD8F
:1054C00000F0DFF800F0C7F83078022810D100F0C3
:1054D000E0F800F0C6F800F07CF83320FFF75BFD41
:1054E00000F08BF800F083F800F0CBF800F0B3F890
:1054F000307803281AD100F0CCF800F0B2F800F0B0
:105500009EF800F066F83C20FFF745FD10231722B7
:1055100000214320FFF79AFD10230B220021532086
:10552000FFF794FD00F0ADF800F095F8207804281E
:105530000DD1FFF7CBFC10230C2200F088F81023CC
:105540000D2200F04CF810230E2200F033F82078E2
:10555000052824D11023132200F079F810231422F7
:1055600000F03DF81023152200F024F81023162235
:1055700000213120FFF76AFD287838B900F091F852
:1055800000F077F800F01FF8532006E0012806D15C
:1055900000F088F800F017F84A20FFF7FCFCBDE89F
:1055A0007340FFF772BC0000304C0020314C0020EB
:1055B000324C002000212120FFF748BD012000903F
:1055C00010235622704701200090102356220021FC
:1055D00070470120009010236B22002170470021AA
:1055E0001120FFF733BD102305220021704710233F
:1055F0000B2200214D20FFF729BD10231722002187
:105600003C20FFF723BD1023072200213120FFF7A4
:105610001DBD1023062200212120FFF717BD012008
:1056200000901023562200214A20FFF7B4BC01202D
:1056300000901023562200215320FFF7ACBC01201C
:1056400000901023302200213320FFF7A4BC00215A
:105650000020FFF7FBBC1023172211213420FFF795
:10566000F5BC012000901023302200212A20FFF7F2
:1056700092BC012000901023302200214A20FFF725
:105680008ABC0120009010236B2211212B20FFF7F0
:1056900082BC012100911023322200212120FFF73A
:1056A0007ABC012000901023322200214120FFF714
:1056B00072BC000038B50446FEF7FEFE14F1010F7F
:1056C000054602D0044988680419FEF7F5FE401B20
:1056D000A042FAD331BD00BF3C17002010B5002115
:1056E0000FF2E070DFF8684700F015FC2060002141
:1056F0000FF2E47000F00FFC606000210FF2EC701C
:1057000000F009FCA06010BD80B5012000F01AFC7B
:10571000FBE72DE9F843DFF83C47DFF83C57DFF8BB
:105720003C87DFF83C770CE018B901E021700126D6
:1057300000223A70B8700EB1FFF7F0FD012000F0C2
:1057400001FCFEF7B9FE81460121DFF81807FFF7DB
:10575000BDF83A7878700026110003D0022AE3D011
:1057600009D3E6E7012804BFB9780029E1D1C7F8D9
:1057700004900122DDE798F8001001280ED17B6823
:10578000A9EB0303B3F5967FD3D304290CBF002103
:10579000491C88F8001001260222CAE701291CBF13
:1057A0000229052905D12A78012A0CBF00220122ED
:1057B0002A700329BBD1217803290CBF0021491C81
:1057C000B4E700002DE9F84F2DED108B82B0DFF823
:1057D0009896DFF89086DFF89466B2EE04FADFED73
:1057E00074FADFED74EA9FED74EADFED74DA9FED91
:1057F000749ADFED749A9FED74AAF1EE00AA9FED02
:1058000073BADFED73BA9FED73CADFED73CA9FED14
:1058100073DA13E0306A401C30620CE0DFF85006A7
:1058200086ED028B30EE200A80ED000AC6E900AB5F
:10583000032300F0EDFA012000F084FBDFF81C06E2
:105840000078012818BF052851D1DFF80C06007830
:1058500000284BD101224FF40051DFF81806FFF762
:105860003BF80122DFF81016DFF81006FDF79CFF69
:10587000DFF80C16DFF800360A68186882180A602C
:1058800040F2CF713069401C884230614BD300F048
:10589000C4FADFF8EC0500F0A7FA00EE902AB8EEA3
:1058A000600A20EE0D0ABBEE041A00EE2C1AF5EE8B
:1058B000001A002331EE210A3361B4EE4C0A036072
:1058C000F1EE10FAA8BFB0EE6B0AB4EE4B0AF1EE9F
:1058D00010FA48BFB0EE4B0ADFF8A805DFF89815BC
:1058E00080ED000AC1ED000A022353E0012853D1E4
:1058F00000224FF40051DFF87C05DFF88C45FEF7FD
:10590000EBFF01222146DFF88405FDF74DFFDFF8AC
:10591000801520680A6882180A6040F2CF717069A9
:10592000401C8842706137D300F077FADFF86005D9
:1059300000F05AFA08EE102A0023B8EE480A736104
:1059400020EE2A0AF8EE000A036040EE2C0A10EE60
:10595000900A01F0E5F9DFF83C25DFF83C35FDF76A
:105960007BF901F021FA00EE100AB4EE4A0AF1EEDA
:1059700010FAA8BFB0EE690AB4EE490AF1EE10FAC7
:1059800048BFB0EE490ADFF8E85485ED000A84ED1F
:10599000008A032300F03CFADFF8C0442078032893
:1059A00040F0B680DFF8AC140878C8B900221AE0DD
:1059B00000007A4466E6474367E6474300806D454A
:1059C0003BDFFFBF3BDFFF3F3CDFFF3F85EB9FC17E
:1059D00085EB9F4186EB9F4100008039000020420B
:1059E000012804D1012200F009FA002209E002286E
:1059F00008BF002202D003280AD1012200F0FEF9DC
:105A000001224FF4006100F0FBF9002200F0FBF9E5
:105A10000122DFF88814DFF88804DFF88054FDF7EE
:105A2000C3FEB169DFF87C24491CB16113682868A2
:105A3000C318632913606BD300F0EFF9DFF8641427
:105A400008680023B36164220B60B0FBF2F040F6FB
:105A5000D761884288BF0846DFF8401408600146D5
:105A6000DFF8F003007806EB800300EE101AB8EEC2
:105A7000400AD3ED090A60EE200A3DEEC00A40F666
:105A8000746280EE800A914228BF9FEDD00ADFF851
:105A9000181481ED000A38B9B4EE4E0AF1EE10FA8E
:105AA0002EDBC1ED00EA2BE001280CD100F088F9D3
:105AB000B4EE4A0AF1EE10FAA8BFB0EE690A81ED21
:105AC000000A03230DE002280DD100F079F9B4EEAD
:105AD0004C0AF1EE10FAA8BFB0EE6B0A81ED000A95
